{
  "_format": "hh-sol-artifact-1",
  "contractName": "WeaveWager",
  "sourceName": "contracts/WeaveWager.sol",
  "abi": [
    {
      "inputs": [],
      "stateMutability": "nonpayable",
      "type": "constructor"
    },
    {
      "anonymous": false,
      "inputs": [
        {
          "indexed": true,
          "internalType": "uint256",
          "name": "wagerId",
          "type": "uint256"
        },
        {
          "indexed": false,
          "internalType": "address",
          "name": "creator",
          "type": "address"
        }
      ],
      "name": "WagerCancled",
      "type": "event"
    },
    {
      "anonymous": false,
      "inputs": [
        {
          "indexed": true,
          "internalType": "uint256",
          "name": "wagerId",
          "type": "uint256"
        },
        {
          "indexed": true,
          "internalType": "address",
          "name": "creator",
          "type": "address"
        },
        {
          "indexed": false,
          "internalType": "uint256",
          "name": "matchId",
          "type": "uint256"
        },
        {
          "indexed": false,
          "internalType": "uint256",
          "name": "stake",
          "type": "uint256"
        }
      ],
      "name": "WagerCreated",
      "type": "event"
    },
    {
      "anonymous": false,
      "inputs": [
        {
          "indexed": true,
          "internalType": "uint256",
          "name": "wagerId",
          "type": "uint256"
        },
        {
          "indexed": true,
          "internalType": "address",
          "name": "participant",
          "type": "address"
        }
      ],
      "name": "WagerJoined",
      "type": "event"
    },
    {
      "anonymous": false,
      "inputs": [
        {
          "indexed": true,
          "internalType": "uint256",
          "name": "wagerId",
          "type": "uint256"
        },
        {
          "indexed": false,
          "internalType": "address[]",
          "name": "winners",
          "type": "address[]"
        }
      ],
      "name": "WagerResolved",
      "type": "event"
    },
    {
      "inputs": [
        {
          "internalType": "uint256",
          "name": "_wagerId",
          "type": "uint256"
        }
      ],
      "name": "cancleWager",
      "outputs": [],
      "stateMutability": "payable",
      "type": "function"
    },
    {
      "inputs": [
        {
          "internalType": "uint256",
          "name": "_matchId",
          "type": "uint256"
        },
        {
          "internalType": "uint256",
          "name": "_stake",
          "type": "uint256"
        },
        {
          "internalType": "uint256",
          "name": "_maxEntries",
          "type": "uint256"
        },
        {
          "internalType": "uint256",
          "name": "_matchStartTimestamp",
          "type": "uint256"
        }
      ],
      "name": "createWager",
      "outputs": [],
      "stateMutability": "payable",
      "type": "function"
    },
    {
      "inputs": [
        {
          "internalType": "uint256",
          "name": "",
          "type": "uint256"
        }
      ],
      "name": "gameWagerNumber",
      "outputs": [
        {
          "internalType": "uint256",
          "name": "",
          "type": "uint256"
        }
      ],
      "stateMutability": "view",
      "type": "function"
    },
    {
      "inputs": [
        {
          "internalType": "uint256",
          "name": "_gameId",
          "type": "uint256"
        }
      ],
      "name": "getNumberOfWagers",
      "outputs": [
        {
          "internalType": "uint256",
          "name": "",
          "type": "uint256"
        }
      ],
      "stateMutability": "view",
      "type": "function"
    },
    {
      "inputs": [
        {
          "internalType": "address",
          "name": "_user",
          "type": "address"
        }
      ],
      "name": "getUserWagers",
      "outputs": [
        {
          "internalType": "uint256[]",
          "name": "",
          "type": "uint256[]"
        }
      ],
      "stateMutability": "view",
      "type": "function"
    },
    {
      "inputs": [
        {
          "internalType": "uint256",
          "name": "_wagerId",
          "type": "uint256"
        }
      ],
      "name": "getWager",
      "outputs": [
        {
          "components": [
            {
              "internalType": "uint256",
              "name": "id",
              "type": "uint256"
            },
            {
              "internalType": "address",
              "name": "creator",
              "type": "address"
            },
            {
              "internalType": "uint256",
              "name": "matchId",
              "type": "uint256"
            },
            {
              "internalType": "uint256",
              "name": "stake",
              "type": "uint256"
            },
            {
              "internalType": "uint256",
              "name": "totalStaked",
              "type": "uint256"
            },
            {
              "internalType": "uint256",
              "name": "maxEntries",
              "type": "uint256"
            },
            {
              "internalType": "uint256",
              "name": "totalEntries",
              "type": "uint256"
            },
            {
              "internalType": "uint256",
              "name": "matchStartTimestamp",
              "type": "uint256"
            },
            {
              "internalType": "bool",
              "name": "resolved",
              "type": "bool"
            }
          ],
          "internalType": "struct WeaveWager.Wager",
          "name": "",
          "type": "tuple"
        }
      ],
      "stateMutability": "view",
      "type": "function"
    },
    {
      "inputs": [
        {
          "internalType": "uint256",
          "name": "_wagerId",
          "type": "uint256"
        }
      ],
      "name": "getWagerWinners",
      "outputs": [
        {
          "internalType": "address[]",
          "name": "",
          "type": "address[]"
        }
      ],
      "stateMutability": "view",
      "type": "function"
    },
    {
      "inputs": [
        {
          "internalType": "uint256",
          "name": "_wagerId",
          "type": "uint256"
        },
        {
          "internalType": "address",
          "name": "_address",
          "type": "address"
        }
      ],
      "name": "isParticipant",
      "outputs": [
        {
          "internalType": "bool",
          "name": "",
          "type": "bool"
        }
      ],
      "stateMutability": "view",
      "type": "function"
    },
    {
      "inputs": [
        {
          "internalType": "uint256",
          "name": "_wagerId",
          "type": "uint256"
        }
      ],
      "name": "joinWager",
      "outputs": [],
      "stateMutability": "payable",
      "type": "function"
    },
    {
      "inputs": [],
      "name": "owner",
      "outputs": [
        {
          "internalType": "address",
          "name": "",
          "type": "address"
        }
      ],
      "stateMutability": "view",
      "type": "function"
    },
    {
      "inputs": [
        {
          "internalType": "uint256",
          "name": "_wagerId",
          "type": "uint256"
        },
        {
          "internalType": "address[]",
          "name": "_winners",
          "type": "address[]"
        }
      ],
      "name": "resolveWager",
      "outputs": [],
      "stateMutability": "nonpayable",
      "type": "function"
    },
    {
      "inputs": [],
      "name": "totalWager",
      "outputs": [
        {
          "internalType": "uint256",
          "name": "",
          "type": "uint256"
        }
      ],
      "stateMutability": "view",
      "type": "function"
    },
    {
      "inputs": [
        {
          "internalType": "address",
          "name": "",
          "type": "address"
        },
        {
          "internalType": "uint256",
          "name": "",
          "type": "uint256"
        }
      ],
      "name": "userWagers",
      "outputs": [
        {
          "internalType": "uint256",
          "name": "",
          "type": "uint256"
        }
      ],
      "stateMutability": "view",
      "type": "function"
    },
    {
      "inputs": [
        {
          "internalType": "uint256",
          "name": "",
          "type": "uint256"
        }
      ],
      "name": "wagerCreator",
      "outputs": [
        {
          "internalType": "address",
          "name": "",
          "type": "address"
        }
      ],
      "stateMutability": "view",
      "type": "function"
    },
    {
      "inputs": [
        {
          "internalType": "uint256",
          "name": "",
          "type": "uint256"
        },
        {
          "internalType": "uint256",
          "name": "",
          "type": "uint256"
        }
      ],
      "name": "wagerEntries",
      "outputs": [
        {
          "internalType": "address",
          "name": "",
          "type": "address"
        }
      ],
      "stateMutability": "view",
      "type": "function"
    },
    {
      "inputs": [
        {
          "internalType": "uint256",
          "name": "",
          "type": "uint256"
        }
      ],
      "name": "wagerResolved",
      "outputs": [
        {
          "internalType": "bool",
          "name": "",
          "type": "bool"
        }
      ],
      "stateMutability": "view",
      "type": "function"
    },
    {
      "inputs": [
        {
          "internalType": "uint256",
          "name": "",
          "type": "uint256"
        },
        {
          "internalType": "uint256",
          "name": "",
          "type": "uint256"
        }
      ],
      "name": "wagerWinners",
      "outputs": [
        {
          "internalType": "address",
          "name": "",
          "type": "address"
        }
      ],
      "stateMutability": "view",
      "type": "function"
    },
    {
      "inputs": [
        {
          "internalType": "uint256",
          "name": "",
          "type": "uint256"
        }
      ],
      "name": "wagers",
      "outputs": [
        {
          "internalType": "uint256",
          "name": "id",
          "type": "uint256"
        },
        {
          "internalType": "address",
          "name": "creator",
          "type": "address"
        },
        {
          "internalType": "uint256",
          "name": "matchId",
          "type": "uint256"
        },
        {
          "internalType": "uint256",
          "name": "stake",
          "type": "uint256"
        },
        {
          "internalType": "uint256",
          "name": "totalStaked",
          "type": "uint256"
        },
        {
          "internalType": "uint256",
          "name": "maxEntries",
          "type": "uint256"
        },
        {
          "internalType": "uint256",
          "name": "totalEntries",
          "type": "uint256"
        },
        {
          "internalType": "uint256",
          "name": "matchStartTimestamp",
          "type": "uint256"
        },
        {
          "internalType": "bool",
          "name": "resolved",
          "type": "bool"
        }
      ],
      "stateMutability": "view",
      "type": "function"
    },
    {
      "stateMutability": "payable",
      "type": "receive"
    }
  ],
  "bytecode": "0x6080604052348015600f57600080fd5b5033600160006101000a81548173ffffffffffffffffffffffffffffffffffffffff021916908373ffffffffffffffffffffffffffffffffffffffff1602179055506128b5806100606000396000f3fe60806040526004361061010d5760003560e01c80637a2756f211610095578063cc45928811610064578063cc459288146103b1578063d8a66792146103ee578063def972e11461042b578063e0d2ad3714610456578063fb1bc0cc1461049357610114565b80637a2756f2146102cf5780638da5cb5b1461030c578063b97db25114610337578063beb88b931461037457610114565b80632580eb72116100dc5780632580eb72146101cb578063375068e514610208578063514f0fe01461024d57806353922ada14610276578063758d9b891461029257610114565b806308492e2c146101195780630c0ecc95146101355780630e7401471461017257806322a1b1de1461018e57610114565b3661011457005b600080fd5b610133600480360381019061012e91906118e9565b6104d0565b005b34801561014157600080fd5b5061015c600480360381019061015791906118e9565b61079a565b6040516101699190611a06565b60405180910390f35b61018c60048036038101906101879190611a28565b61083b565b005b34801561019a57600080fd5b506101b560048036038101906101b091906118e9565b610c76565b6040516101c29190611a9e565b60405180910390f35b3480156101d757600080fd5b506101f260048036038101906101ed91906118e9565b610c8e565b6040516101ff9190611ad4565b60405180910390f35b34801561021457600080fd5b5061022f600480360381019061022a91906118e9565b610cae565b60405161024499989796959493929190611afe565b60405180910390f35b34801561025957600080fd5b50610274600480360381019061026f9190611bf0565b610d29565b005b610290600480360381019061028b91906118e9565b61127f565b005b34801561029e57600080fd5b506102b960048036038101906102b49190611c7c565b611483565b6040516102c69190611ad4565b60405180910390f35b3480156102db57600080fd5b506102f660048036038101906102f191906118e9565b6114eb565b6040516103039190611d91565b60405180910390f35b34801561031857600080fd5b506103216115d0565b60405161032e9190611dad565b60405180910390f35b34801561034357600080fd5b5061035e60048036038101906103599190611dc8565b6115f6565b60405161036b9190611dad565b60405180910390f35b34801561038057600080fd5b5061039b600480360381019061039691906118e9565b611644565b6040516103a89190611a9e565b60405180910390f35b3480156103bd57600080fd5b506103d860048036038101906103d39190611dc8565b611661565b6040516103e59190611dad565b60405180910390f35b3480156103fa57600080fd5b5061041560048036038101906104109190611e08565b6116af565b6040516104229190611a9e565b60405180910390f35b34801561043757600080fd5b506104406116e0565b60405161044d9190611a9e565b60405180910390f35b34801561046257600080fd5b5061047d60048036038101906104789190611e48565b6116e6565b60405161048a9190611f24565b60405180910390f35b34801561049f57600080fd5b506104ba60048036038101906104b591906118e9565b61177d565b6040516104c79190611dad565b60405180910390f35b60006104db826114eb565b9050428160e0015111610523576040517f08c379a000000000000000000000000000000000000000000000000000000000815260040161051a90611fc9565b60405180910390fd5b61052d8233611483565b1561056d576040517f08c379a000000000000000000000000000000000000000000000000000000000815260040161056490612035565b60405180910390fd5b8060a001518160c00151106105b7576040517f08c379a00000000000000000000000000000000000000000000000000000000081526004016105ae906120c7565b60405180910390fd5b806060015134146105fd576040517f08c379a00000000000000000000000000000000000000000000000000000000081526004016105f490612159565b60405180910390fd5b600360003373ffffffffffffffffffffffffffffffffffffffff1673ffffffffffffffffffffffffffffffffffffffff16815260200190815260200160002082908060018154018082558091505060019003906000526020600020016000909190919091505560056000838152602001908152602001600020339080600181540180825580915050600190039060005260206000200160009091909190916101000a81548173ffffffffffffffffffffffffffffffffffffffff021916908373ffffffffffffffffffffffffffffffffffffffff16021790555060016006600084815260200190815260200160002060003373ffffffffffffffffffffffffffffffffffffffff1673ffffffffffffffffffffffffffffffffffffffff16815260200190815260200160002060006101000a81548160ff021916908315150217905550610749826117b0565b610752826117f0565b3373ffffffffffffffffffffffffffffffffffffffff16827f77c5e110c36f6b7fa67aeec58e5d9f649e15f085552bed2c68a82b68660d0de860405160405180910390a35050565b60606007600083815260200190815260200160002080548060200260200160405190810160405280929190818152602001828054801561082f57602002820191906000526020600020905b8160009054906101000a900473ffffffffffffffffffffffffffffffffffffffff1673ffffffffffffffffffffffffffffffffffffffff16815260200190600101908083116107e5575b50505050509050919050565b6000831161087e576040517f08c379a0000000000000000000000000000000000000000000000000000000008152600401610875906121c5565b60405180910390fd5b600182116108c1576040517f08c379a00000000000000000000000000000000000000000000000000000000081526004016108b890612257565b60405180910390fd5b823414610903576040517f08c379a00000000000000000000000000000000000000000000000000000000081526004016108fa90612159565b60405180910390fd5b600160005461091291906122a6565b600081905550600060405180610120016040528060005481526020013373ffffffffffffffffffffffffffffffffffffffff1681526020018681526020018581526020018581526020018481526020016001815260200183815260200160001515815250905033600260008360000151815260200190815260200160002060006101000a81548173ffffffffffffffffffffffffffffffffffffffff021916908373ffffffffffffffffffffffffffffffffffffffff160217905550600360003373ffffffffffffffffffffffffffffffffffffffff1673ffffffffffffffffffffffffffffffffffffffff168152602001908152602001600020816000015190806001815401808255809150506001900390600052602060002001600090919091909150556005600082600001518152602001908152602001600020339080600181540180825580915050600190039060005260206000200160009091909190916101000a81548173ffffffffffffffffffffffffffffffffffffffff021916908373ffffffffffffffffffffffffffffffffffffffff1602179055506001600660008360000151815260200190815260200160002060003373ffffffffffffffffffffffffffffffffffffffff1673ffffffffffffffffffffffffffffffffffffffff16815260200190815260200160002060006101000a81548160ff0219169083151502179055508060086000805481526020019081526020016000206000820151816000015560208201518160010160006101000a81548173ffffffffffffffffffffffffffffffffffffffff021916908373ffffffffffffffffffffffffffffffffffffffff16021790555060408201518160020155606082015181600301556080820151816004015560a0820151816005015560c0820151816006015560e082015181600701556101008201518160080160006101000a81548160ff02191690831515021790555090505060016009600087815260200190815260200160002054610c0391906122a6565b60096000878152602001908152602001600020819055503373ffffffffffffffffffffffffffffffffffffffff1681600001517f23ee0fa364202253cc921ccc2875f3262c31b5d3a2319a97fe04afad6d83b0ae8787604051610c679291906122da565b60405180910390a35050505050565b60096020528060005260406000206000915090505481565b60046020528060005260406000206000915054906101000a900460ff1681565b60086020528060005260406000206000915090508060000154908060010160009054906101000a900473ffffffffffffffffffffffffffffffffffffffff16908060020154908060030154908060040154908060050154908060060154908060070154908060080160009054906101000a900460ff16905089565b600160009054906101000a900473ffffffffffffffffffffffffffffffffffffffff1673ffffffffffffffffffffffffffffffffffffffff163373ffffffffffffffffffffffffffffffffffffffff1614610db9576040517f08c379a0000000000000000000000000000000000000000000000000000000008152600401610db090612375565b60405180910390fd5b6000610dc4846114eb565b90506004600085815260200190815260200160002060009054906101000a900460ff1615610e27576040517f08c379a0000000000000000000000000000000000000000000000000000000008152600401610e1e906123e1565b60405180910390fd5b8060c00151838390501115610e71576040517f08c379a0000000000000000000000000000000000000000000000000000000008152600401610e6890612473565b60405180910390fd5b428160e0015110610eb7576040517f08c379a0000000000000000000000000000000000000000000000000000000008152600401610eae90612505565b60405180910390fd5b60016004600086815260200190815260200160002060006101000a81548160ff021916908315150217905550600181610100019015159081151581525050600083839050905060008260800151905060008360c0015190506000831480610f1d57508083145b156110505760005b8181101561104a576000600560008a81526020019081526020016000208281548110610f5457610f53612525565b5b9060005260206000200160009054906101000a900473ffffffffffffffffffffffffffffffffffffffff1690506000808273ffffffffffffffffffffffffffffffffffffffff168587610fa79190612583565b604051610fb3906125e5565b60006040518083038185875af1925050503d8060008114610ff0576040519150601f19603f3d011682016040523d82523d6000602084013e610ff5565b606091505b50915091508161103a576040517f08c379a000000000000000000000000000000000000000000000000000000000815260040161103190612646565b60405180910390fd5b5050508080600101915050610f25565b5061123c565b6000838361105e9190612583565b905060005b848110156112395761109c8989898481811061108257611081612525565b5b90506020020160208101906110979190611e48565b611483565b6110db576040517f08c379a00000000000000000000000000000000000000000000000000000000081526004016110d2906126b2565b60405180910390fd5b60008888838181106110f0576110ef612525565b5b90506020020160208101906111059190611e48565b90506000808273ffffffffffffffffffffffffffffffffffffffff168560405161112e906125e5565b60006040518083038185875af1925050503d806000811461116b576040519150601f19603f3d011682016040523d82523d6000602084013e611170565b606091505b5091509150816111b5576040517f08c379a00000000000000000000000000000000000000000000000000000000081526004016111ac90612646565b60405180910390fd5b600760008d8152602001908152602001600020839080600181540180825580915050600190039060005260206000200160009091909190916101000a81548173ffffffffffffffffffffffffffffffffffffffff021916908373ffffffffffffffffffffffffffffffffffffffff1602179055505050508080600101915050611063565b50505b867f33e594f82663811673bbe01e06f46080cb6b7ac55b9b8fecec4f59ea32c690c1878760405161126e92919061275d565b60405180910390a250505050505050565b600061128a826114eb565b90503373ffffffffffffffffffffffffffffffffffffffff16816020015173ffffffffffffffffffffffffffffffffffffffff16146112fe576040517f08c379a00000000000000000000000000000000000000000000000000000000081526004016112f5906127f3565b60405180910390fd5b60028160c0015110611345576040517f08c379a000000000000000000000000000000000000000000000000000000000815260040161133c9061285f565b60405180910390fd5b60008160200151905060008260600151905060018361010001901515908115158152505060016004600086815260200190815260200160002060006101000a81548160ff0219169083151502179055506000808373ffffffffffffffffffffffffffffffffffffffff16836040516113bc906125e5565b60006040518083038185875af1925050503d80600081146113f9576040519150601f19603f3d011682016040523d82523d6000602084013e6113fe565b606091505b509150915081611443576040517f08c379a000000000000000000000000000000000000000000000000000000000815260040161143a90612646565b60405180910390fd5b857f6815d124b1b2881113f47ceeeed99d35eb0591aba9c53ae03d47fecb83a5ade1336040516114739190611dad565b60405180910390a2505050505050565b60006006600084815260200190815260200160002060008373ffffffffffffffffffffffffffffffffffffffff1673ffffffffffffffffffffffffffffffffffffffff16815260200190815260200160002060009054906101000a900460ff16905092915050565b6114f3611845565b6008600083815260200190815260200160002060405180610120016040529081600082015481526020016001820160009054906101000a900473ffffffffffffffffffffffffffffffffffffffff1673ffffffffffffffffffffffffffffffffffffffff1673ffffffffffffffffffffffffffffffffffffffff1681526020016002820154815260200160038201548152602001600482015481526020016005820154815260200160068201548152602001600782015481526020016008820160009054906101000a900460ff1615151515815250509050919050565b600160009054906101000a900473ffffffffffffffffffffffffffffffffffffffff1681565b6007602052816000526040600020818154811061161257600080fd5b906000526020600020016000915091509054906101000a900473ffffffffffffffffffffffffffffffffffffffff1681565b600060096000838152602001908152602001600020549050919050565b6005602052816000526040600020818154811061167d57600080fd5b906000526020600020016000915091509054906101000a900473ffffffffffffffffffffffffffffffffffffffff1681565b600360205281600052604060002081815481106116cb57600080fd5b90600052602060002001600091509150505481565b60005481565b6060600360008373ffffffffffffffffffffffffffffffffffffffff1673ffffffffffffffffffffffffffffffffffffffff16815260200190815260200160002080548060200260200160405190810160405280929190818152602001828054801561177157602002820191906000526020600020905b81548152602001906001019080831161175d575b50505050509050919050565b60026020528060005260406000206000915054906101000a900473ffffffffffffffffffffffffffffffffffffffff1681565b600160086000838152602001908152602001600020600601546117d391906122a6565b600860008381526020019081526020016000206006018190555050565b6008600082815260200190815260200160002060030154600860008381526020019081526020016000206004015461182891906122a6565b600860008381526020019081526020016000206004018190555050565b60405180610120016040528060008152602001600073ffffffffffffffffffffffffffffffffffffffff1681526020016000815260200160008152602001600081526020016000815260200160008152602001600081526020016000151581525090565b600080fd5b600080fd5b6000819050919050565b6118c6816118b3565b81146118d157600080fd5b50565b6000813590506118e3816118bd565b92915050565b6000602082840312156118ff576118fe6118a9565b5b600061190d848285016118d4565b91505092915050565b600081519050919050565b600082825260208201905092915050565b6000819050602082019050919050565b600073ffffffffffffffffffffffffffffffffffffffff82169050919050565b600061196d82611942565b9050919050565b61197d81611962565b82525050565b600061198f8383611974565b60208301905092915050565b6000602082019050919050565b60006119b382611916565b6119bd8185611921565b93506119c883611932565b8060005b838110156119f95781516119e08882611983565b97506119eb8361199b565b9250506001810190506119cc565b5085935050505092915050565b60006020820190508181036000830152611a2081846119a8565b905092915050565b60008060008060808587031215611a4257611a416118a9565b5b6000611a50878288016118d4565b9450506020611a61878288016118d4565b9350506040611a72878288016118d4565b9250506060611a83878288016118d4565b91505092959194509250565b611a98816118b3565b82525050565b6000602082019050611ab36000830184611a8f565b92915050565b60008115159050919050565b611ace81611ab9565b82525050565b6000602082019050611ae96000830184611ac5565b92915050565b611af881611962565b82525050565b600061012082019050611b14600083018c611a8f565b611b21602083018b611aef565b611b2e604083018a611a8f565b611b3b6060830189611a8f565b611b486080830188611a8f565b611b5560a0830187611a8f565b611b6260c0830186611a8f565b611b6f60e0830185611a8f565b611b7d610100830184611ac5565b9a9950505050505050505050565b600080fd5b600080fd5b600080fd5b60008083601f840112611bb057611baf611b8b565b5b8235905067ffffffffffffffff811115611bcd57611bcc611b90565b5b602083019150836020820283011115611be957611be8611b95565b5b9250929050565b600080600060408486031215611c0957611c086118a9565b5b6000611c17868287016118d4565b935050602084013567ffffffffffffffff811115611c3857611c376118ae565b5b611c4486828701611b9a565b92509250509250925092565b611c5981611962565b8114611c6457600080fd5b50565b600081359050611c7681611c50565b92915050565b60008060408385031215611c9357611c926118a9565b5b6000611ca1858286016118d4565b9250506020611cb285828601611c67565b9150509250929050565b611cc5816118b3565b82525050565b611cd481611ab9565b82525050565b61012082016000820151611cf16000850182611cbc565b506020820151611d046020850182611974565b506040820151611d176040850182611cbc565b506060820151611d2a6060850182611cbc565b506080820151611d3d6080850182611cbc565b5060a0820151611d5060a0850182611cbc565b5060c0820151611d6360c0850182611cbc565b5060e0820151611d7660e0850182611cbc565b50610100820151611d8b610100850182611ccb565b50505050565b600061012082019050611da76000830184611cda565b92915050565b6000602082019050611dc26000830184611aef565b92915050565b60008060408385031215611ddf57611dde6118a9565b5b6000611ded858286016118d4565b9250506020611dfe858286016118d4565b9150509250929050565b60008060408385031215611e1f57611e1e6118a9565b5b6000611e2d85828601611c67565b9250506020611e3e858286016118d4565b9150509250929050565b600060208284031215611e5e57611e5d6118a9565b5b6000611e6c84828501611c67565b91505092915050565b600081519050919050565b600082825260208201905092915050565b6000819050602082019050919050565b6000611ead8383611cbc565b60208301905092915050565b6000602082019050919050565b6000611ed182611e75565b611edb8185611e80565b9350611ee683611e91565b8060005b83811015611f17578151611efe8882611ea1565b9750611f0983611eb9565b925050600181019050611eea565b5085935050505092915050565b60006020820190508181036000830152611f3e8184611ec6565b905092915050565b600082825260208201905092915050565b7f43616e2774204a6f696e2057616765722c204d6174636820616c72656164792060008201527f5374617274656400000000000000000000000000000000000000000000000000602082015250565b6000611fb3602783611f46565b9150611fbe82611f57565b604082019050919050565b60006020820190508181036000830152611fe281611fa6565b9050919050565b7f4164647265737320697320616c72656164792061207061727469636970616e74600082015250565b600061201f602083611f46565b915061202a82611fe9565b602082019050919050565b6000602082019050818103600083015261204e81612012565b9050919050565b7f4d617820456e747269657320666f72207468652057616765722052656163686560008201527f6400000000000000000000000000000000000000000000000000000000000000602082015250565b60006120b1602183611f46565b91506120bc82612055565b604082019050919050565b600060208201905081810360008301526120e0816120a4565b9050919050565b7f53656e742056616c7565206d75737420626520657175616c20746f205374616b60008201527f6500000000000000000000000000000000000000000000000000000000000000602082015250565b6000612143602183611f46565b915061214e826120e7565b604082019050919050565b6000602082019050818103600083015261217281612136565b9050919050565b7f5374616b65206d7573742062652067726561746572207468616e207a65726f00600082015250565b60006121af601f83611f46565b91506121ba82612179565b602082019050919050565b600060208201905081810360008301526121de816121a2565b9050919050565b7f4d617820456e7472696573206d7573742062652067726561746572207468616e60008201527f207a65726f000000000000000000000000000000000000000000000000000000602082015250565b6000612241602583611f46565b915061224c826121e5565b604082019050919050565b6000602082019050818103600083015261227081612234565b9050919050565b7f4e487b7100000000000000000000000000000000000000000000000000000000600052601160045260246000fd5b60006122b1826118b3565b91506122bc836118b3565b92508282019050808211156122d4576122d3612277565b5b92915050565b60006040820190506122ef6000830185611a8f565b6122fc6020830184611a8f565b9392505050565b7f46756e6374696f6e2063616e204f6e6c792062652063616c6c6564206279206f60008201527f776e657200000000000000000000000000000000000000000000000000000000602082015250565b600061235f602483611f46565b915061236a82612303565b604082019050919050565b6000602082019050818103600083015261238e81612352565b9050919050565b7f576167657220686173206265656e207265736f6c766564000000000000000000600082015250565b60006123cb601783611f46565b91506123d682612395565b602082019050919050565b600060208201905081810360008301526123fa816123be565b9050919050565b7f57696e6e65727320417272617920497320426967676572207468616e2057616760008201527f657220456e747269657300000000000000000000000000000000000000000000602082015250565b600061245d602a83611f46565b915061246882612401565b604082019050919050565b6000602082019050818103600083015261248c81612450565b9050919050565b7f43616e2774205265736f6c76652057616765722c204d61746368204861766e2760008201527f7420537461727465640000000000000000000000000000000000000000000000602082015250565b60006124ef602983611f46565b91506124fa82612493565b604082019050919050565b6000602082019050818103600083015261251e816124e2565b9050919050565b7f4e487b7100000000000000000000000000000000000000000000000000000000600052603260045260246000fd5b7f4e487b7100000000000000000000000000000000000000000000000000000000600052601260045260246000fd5b600061258e826118b3565b9150612599836118b3565b9250826125a9576125a8612554565b5b828204905092915050565b600081905092915050565b50565b60006125cf6000836125b4565b91506125da826125bf565b600082019050919050565b60006125f0826125c2565b9150819050919050565b7f4661696c656420746f2073656e64204574686572000000000000000000000000600082015250565b6000612630601483611f46565b915061263b826125fa565b602082019050919050565b6000602082019050818103600083015261265f81612623565b9050919050565b7f41646472657373206973206e6f742061207061727469636970616e7400000000600082015250565b600061269c601c83611f46565b91506126a782612666565b602082019050919050565b600060208201905081810360008301526126cb8161268f565b9050919050565b6000819050919050565b60006126eb6020840184611c67565b905092915050565b6000602082019050919050565b600061270c8385611921565b9350612717826126d2565b8060005b858110156127505761272d82846126dc565b6127378882611983565b9750612742836126f3565b92505060018101905061271b565b5085925050509392505050565b60006020820190508181036000830152612778818486612700565b90509392505050565b7f4f6e6c79207468652063726561746f722063616e2063616e636c65207468652060008201527f7374616b65000000000000000000000000000000000000000000000000000000602082015250565b60006127dd602583611f46565b91506127e882612781565b604082019050919050565b6000602082019050818103600083015261280c816127d0565b9050919050565b7f4d6f7265207468616e206f6e65207573657220686173207374616b6564000000600082015250565b6000612849601d83611f46565b915061285482612813565b602082019050919050565b600060208201905081810360008301526128788161283c565b905091905056fea264697066735822122045f8e1e4fea52f2d65abad8c68fa303979615bf97b9ea050ec05242685bf43b764736f6c63430008190033",
  "linkReferences": {},
  "deployedLinkReferences": {}
}