{
  "contracts/WeaveWager.sol": {
    "WeaveWager": {
      "abi": [
        {
          "inputs": [],
          "stateMutability": "nonpayable",
          "type": "constructor"
        },
        {
          "anonymous": false,
          "inputs": [
            {
              "indexed": true,
              "internalType": "uint256",
              "name": "wagerId",
              "type": "uint256"
            },
            {
              "indexed": false,
              "internalType": "address",
              "name": "creator",
              "type": "address"
            }
          ],
          "name": "WagerCancled",
          "type": "event"
        },
        {
          "anonymous": false,
          "inputs": [
            {
              "indexed": true,
              "internalType": "uint256",
              "name": "wagerId",
              "type": "uint256"
            },
            {
              "indexed": true,
              "internalType": "address",
              "name": "creator",
              "type": "address"
            },
            {
              "indexed": false,
              "internalType": "uint256",
              "name": "matchId",
              "type": "uint256"
            },
            {
              "indexed": false,
              "internalType": "uint256",
              "name": "stake",
              "type": "uint256"
            }
          ],
          "name": "WagerCreated",
          "type": "event"
        },
        {
          "anonymous": false,
          "inputs": [
            {
              "indexed": true,
              "internalType": "uint256",
              "name": "wagerId",
              "type": "uint256"
            },
            {
              "indexed": true,
              "internalType": "address",
              "name": "participant",
              "type": "address"
            }
          ],
          "name": "WagerJoined",
          "type": "event"
        },
        {
          "anonymous": false,
          "inputs": [
            {
              "indexed": true,
              "internalType": "uint256",
              "name": "wagerId",
              "type": "uint256"
            },
            {
              "indexed": false,
              "internalType": "address[]",
              "name": "winners",
              "type": "address[]"
            }
          ],
          "name": "WagerResolved",
          "type": "event"
        },
        {
          "inputs": [
            {
              "internalType": "uint256",
              "name": "_wagerId",
              "type": "uint256"
            }
          ],
          "name": "cancleWager",
          "outputs": [],
          "stateMutability": "payable",
          "type": "function"
        },
        {
          "inputs": [
            {
              "internalType": "uint256",
              "name": "_matchId",
              "type": "uint256"
            },
            {
              "internalType": "uint256",
              "name": "_stake",
              "type": "uint256"
            },
            {
              "internalType": "uint256",
              "name": "_maxEntries",
              "type": "uint256"
            },
            {
              "internalType": "uint256",
              "name": "_matchStartTimestamp",
              "type": "uint256"
            }
          ],
          "name": "createWager",
          "outputs": [],
          "stateMutability": "payable",
          "type": "function"
        },
        {
          "inputs": [
            {
              "internalType": "uint256",
              "name": "",
              "type": "uint256"
            }
          ],
          "name": "gameWagerNumber",
          "outputs": [
            {
              "internalType": "uint256",
              "name": "",
              "type": "uint256"
            }
          ],
          "stateMutability": "view",
          "type": "function"
        },
        {
          "inputs": [
            {
              "internalType": "uint256",
              "name": "_gameId",
              "type": "uint256"
            }
          ],
          "name": "getNumberOfWagers",
          "outputs": [
            {
              "internalType": "uint256",
              "name": "",
              "type": "uint256"
            }
          ],
          "stateMutability": "view",
          "type": "function"
        },
        {
          "inputs": [
            {
              "internalType": "address",
              "name": "_user",
              "type": "address"
            }
          ],
          "name": "getUserWagers",
          "outputs": [
            {
              "internalType": "uint256[]",
              "name": "",
              "type": "uint256[]"
            }
          ],
          "stateMutability": "view",
          "type": "function"
        },
        {
          "inputs": [
            {
              "internalType": "uint256",
              "name": "_wagerId",
              "type": "uint256"
            }
          ],
          "name": "getWager",
          "outputs": [
            {
              "components": [
                {
                  "internalType": "uint256",
                  "name": "id",
                  "type": "uint256"
                },
                {
                  "internalType": "address",
                  "name": "creator",
                  "type": "address"
                },
                {
                  "internalType": "uint256",
                  "name": "matchId",
                  "type": "uint256"
                },
                {
                  "internalType": "uint256",
                  "name": "stake",
                  "type": "uint256"
                },
                {
                  "internalType": "uint256",
                  "name": "totalStaked",
                  "type": "uint256"
                },
                {
                  "internalType": "uint256",
                  "name": "maxEntries",
                  "type": "uint256"
                },
                {
                  "internalType": "uint256",
                  "name": "totalEntries",
                  "type": "uint256"
                },
                {
                  "internalType": "uint256",
                  "name": "matchStartTimestamp",
                  "type": "uint256"
                },
                {
                  "internalType": "bool",
                  "name": "resolved",
                  "type": "bool"
                }
              ],
              "internalType": "struct WeaveWager.Wager",
              "name": "",
              "type": "tuple"
            }
          ],
          "stateMutability": "view",
          "type": "function"
        },
        {
          "inputs": [
            {
              "internalType": "uint256",
              "name": "_wagerId",
              "type": "uint256"
            }
          ],
          "name": "getWagerWinners",
          "outputs": [
            {
              "internalType": "address[]",
              "name": "",
              "type": "address[]"
            }
          ],
          "stateMutability": "view",
          "type": "function"
        },
        {
          "inputs": [
            {
              "internalType": "uint256",
              "name": "_matchId",
              "type": "uint256"
            },
            {
              "internalType": "address",
              "name": "_address",
              "type": "address"
            }
          ],
          "name": "hasCreatedMatchWager",
          "outputs": [
            {
              "internalType": "bool",
              "name": "",
              "type": "bool"
            }
          ],
          "stateMutability": "view",
          "type": "function"
        },
        {
          "inputs": [
            {
              "internalType": "uint256",
              "name": "_wagerId",
              "type": "uint256"
            },
            {
              "internalType": "address",
              "name": "_address",
              "type": "address"
            }
          ],
          "name": "isParticipant",
          "outputs": [
            {
              "internalType": "bool",
              "name": "",
              "type": "bool"
            }
          ],
          "stateMutability": "view",
          "type": "function"
        },
        {
          "inputs": [
            {
              "internalType": "uint256",
              "name": "_wagerId",
              "type": "uint256"
            }
          ],
          "name": "joinWager",
          "outputs": [],
          "stateMutability": "payable",
          "type": "function"
        },
        {
          "inputs": [],
          "name": "owner",
          "outputs": [
            {
              "internalType": "address",
              "name": "",
              "type": "address"
            }
          ],
          "stateMutability": "view",
          "type": "function"
        },
        {
          "inputs": [
            {
              "internalType": "uint256",
              "name": "_wagerId",
              "type": "uint256"
            },
            {
              "internalType": "address[]",
              "name": "_winners",
              "type": "address[]"
            }
          ],
          "name": "resolveWager",
          "outputs": [],
          "stateMutability": "nonpayable",
          "type": "function"
        },
        {
          "inputs": [],
          "name": "totalWager",
          "outputs": [
            {
              "internalType": "uint256",
              "name": "",
              "type": "uint256"
            }
          ],
          "stateMutability": "view",
          "type": "function"
        },
        {
          "inputs": [
            {
              "internalType": "address",
              "name": "",
              "type": "address"
            },
            {
              "internalType": "uint256",
              "name": "",
              "type": "uint256"
            }
          ],
          "name": "userWagers",
          "outputs": [
            {
              "internalType": "uint256",
              "name": "",
              "type": "uint256"
            }
          ],
          "stateMutability": "view",
          "type": "function"
        },
        {
          "inputs": [
            {
              "internalType": "uint256",
              "name": "",
              "type": "uint256"
            }
          ],
          "name": "wagerCreator",
          "outputs": [
            {
              "internalType": "address",
              "name": "",
              "type": "address"
            }
          ],
          "stateMutability": "view",
          "type": "function"
        },
        {
          "inputs": [
            {
              "internalType": "uint256",
              "name": "",
              "type": "uint256"
            },
            {
              "internalType": "uint256",
              "name": "",
              "type": "uint256"
            }
          ],
          "name": "wagerEntries",
          "outputs": [
            {
              "internalType": "address",
              "name": "",
              "type": "address"
            }
          ],
          "stateMutability": "view",
          "type": "function"
        },
        {
          "inputs": [
            {
              "internalType": "uint256",
              "name": "",
              "type": "uint256"
            }
          ],
          "name": "wagerResolved",
          "outputs": [
            {
              "internalType": "bool",
              "name": "",
              "type": "bool"
            }
          ],
          "stateMutability": "view",
          "type": "function"
        },
        {
          "inputs": [
            {
              "internalType": "uint256",
              "name": "",
              "type": "uint256"
            },
            {
              "internalType": "uint256",
              "name": "",
              "type": "uint256"
            }
          ],
          "name": "wagerWinners",
          "outputs": [
            {
              "internalType": "address",
              "name": "",
              "type": "address"
            }
          ],
          "stateMutability": "view",
          "type": "function"
        },
        {
          "inputs": [
            {
              "internalType": "uint256",
              "name": "",
              "type": "uint256"
            }
          ],
          "name": "wagers",
          "outputs": [
            {
              "internalType": "uint256",
              "name": "id",
              "type": "uint256"
            },
            {
              "internalType": "address",
              "name": "creator",
              "type": "address"
            },
            {
              "internalType": "uint256",
              "name": "matchId",
              "type": "uint256"
            },
            {
              "internalType": "uint256",
              "name": "stake",
              "type": "uint256"
            },
            {
              "internalType": "uint256",
              "name": "totalStaked",
              "type": "uint256"
            },
            {
              "internalType": "uint256",
              "name": "maxEntries",
              "type": "uint256"
            },
            {
              "internalType": "uint256",
              "name": "totalEntries",
              "type": "uint256"
            },
            {
              "internalType": "uint256",
              "name": "matchStartTimestamp",
              "type": "uint256"
            },
            {
              "internalType": "bool",
              "name": "resolved",
              "type": "bool"
            }
          ],
          "stateMutability": "view",
          "type": "function"
        },
        {
          "stateMutability": "payable",
          "type": "receive"
        }
      ],
      "evm": {
        "bytecode": {
          "linkReferences": {},
          "object": "6080604052348015600f57600080fd5b5033600160006101000a81548173ffffffffffffffffffffffffffffffffffffffff021916908373ffffffffffffffffffffffffffffffffffffffff160217905550612a25806100606000396000f3fe6080604052600436106101185760003560e01c80637a2756f2116100a0578063cc45928811610064578063cc459288146103f9578063d8a6679214610436578063def972e114610473578063e0d2ad371461049e578063fb1bc0cc146104db5761011f565b80637a2756f2146102da5780638b26c303146103175780638da5cb5b14610354578063b97db2511461037f578063beb88b93146103bc5761011f565b80632580eb72116100e75780632580eb72146101d6578063375068e514610213578063514f0fe01461025857806353922ada14610281578063758d9b891461029d5761011f565b806308492e2c146101245780630c0ecc95146101405780630e7401471461017d57806322a1b1de146101995761011f565b3661011f57005b600080fd5b61013e60048036038101906101399190611a59565b610518565b005b34801561014c57600080fd5b5061016760048036038101906101629190611a59565b6107e2565b6040516101749190611b76565b60405180910390f35b61019760048036038101906101929190611b98565b610883565b005b3480156101a557600080fd5b506101c060048036038101906101bb9190611a59565b610dc5565b6040516101cd9190611c0e565b60405180910390f35b3480156101e257600080fd5b506101fd60048036038101906101f89190611a59565b610ddd565b60405161020a9190611c44565b60405180910390f35b34801561021f57600080fd5b5061023a60048036038101906102359190611a59565b610dfd565b60405161024f99989796959493929190611c6e565b60405180910390f35b34801561026457600080fd5b5061027f600480360381019061027a9190611d60565b610e78565b005b61029b60048036038101906102969190611a59565b611387565b005b3480156102a957600080fd5b506102c460048036038101906102bf9190611dec565b61158b565b6040516102d19190611c44565b60405180910390f35b3480156102e657600080fd5b5061030160048036038101906102fc9190611a59565b6115f3565b60405161030e9190611f01565b60405180910390f35b34801561032357600080fd5b5061033e60048036038101906103399190611dec565b6116d8565b60405161034b9190611c44565b60405180910390f35b34801561036057600080fd5b50610369611740565b6040516103769190611f1d565b60405180910390f35b34801561038b57600080fd5b506103a660048036038101906103a19190611f38565b611766565b6040516103b39190611f1d565b60405180910390f35b3480156103c857600080fd5b506103e360048036038101906103de9190611a59565b6117b4565b6040516103f09190611c0e565b60405180910390f35b34801561040557600080fd5b50610420600480360381019061041b9190611f38565b6117d1565b60405161042d9190611f1d565b60405180910390f35b34801561044257600080fd5b5061045d60048036038101906104589190611f78565b61181f565b60405161046a9190611c0e565b60405180910390f35b34801561047f57600080fd5b50610488611850565b6040516104959190611c0e565b60405180910390f35b3480156104aa57600080fd5b506104c560048036038101906104c09190611fb8565b611856565b6040516104d29190612094565b60405180910390f35b3480156104e757600080fd5b5061050260048036038101906104fd9190611a59565b6118ed565b60405161050f9190611f1d565b60405180910390f35b6000610523826115f3565b9050428160e001511161056b576040517f08c379a000000000000000000000000000000000000000000000000000000000815260040161056290612139565b60405180910390fd5b610575823361158b565b156105b5576040517f08c379a00000000000000000000000000000000000000000000000000000000081526004016105ac906121a5565b60405180910390fd5b8060a001518160c00151106105ff576040517f08c379a00000000000000000000000000000000000000000000000000000000081526004016105f690612237565b60405180910390fd5b80606001513414610645576040517f08c379a000000000000000000000000000000000000000000000000000000000815260040161063c906122c9565b60405180910390fd5b600360003373ffffffffffffffffffffffffffffffffffffffff1673ffffffffffffffffffffffffffffffffffffffff16815260200190815260200160002082908060018154018082558091505060019003906000526020600020016000909190919091505560056000838152602001908152602001600020339080600181540180825580915050600190039060005260206000200160009091909190916101000a81548173ffffffffffffffffffffffffffffffffffffffff021916908373ffffffffffffffffffffffffffffffffffffffff16021790555060016006600084815260200190815260200160002060003373ffffffffffffffffffffffffffffffffffffffff1673ffffffffffffffffffffffffffffffffffffffff16815260200190815260200160002060006101000a81548160ff02191690831515021790555061079182611920565b61079a82611960565b3373ffffffffffffffffffffffffffffffffffffffff16827f77c5e110c36f6b7fa67aeec58e5d9f649e15f085552bed2c68a82b68660d0de860405160405180910390a35050565b60606007600083815260200190815260200160002080548060200260200160405190810160405280929190818152602001828054801561087757602002820191906000526020600020905b8160009054906101000a900473ffffffffffffffffffffffffffffffffffffffff1673ffffffffffffffffffffffffffffffffffffffff168152602001906001019080831161082d575b50505050509050919050565b600083116108c6576040517f08c379a00000000000000000000000000000000000000000000000000000000081526004016108bd90612335565b60405180910390fd5b60018211610909576040517f08c379a0000000000000000000000000000000000000000000000000000000008152600401610900906123c7565b60405180910390fd5b82341461094b576040517f08c379a0000000000000000000000000000000000000000000000000000000008152600401610942906122c9565b60405180910390fd5b600a600085815260200190815260200160002060003373ffffffffffffffffffffffffffffffffffffffff1673ffffffffffffffffffffffffffffffffffffffff16815260200190815260200160002060009054906101000a900460ff16156109e9576040517f08c379a00000000000000000000000000000000000000000000000000000000081526004016109e090612459565b60405180910390fd5b60016000546109f891906124a8565b600081905550600060405180610120016040528060005481526020013373ffffffffffffffffffffffffffffffffffffffff1681526020018681526020018581526020018581526020018481526020016001815260200183815260200160001515815250905033600260008360000151815260200190815260200160002060006101000a81548173ffffffffffffffffffffffffffffffffffffffff021916908373ffffffffffffffffffffffffffffffffffffffff160217905550600360003373ffffffffffffffffffffffffffffffffffffffff1673ffffffffffffffffffffffffffffffffffffffff168152602001908152602001600020816000015190806001815401808255809150506001900390600052602060002001600090919091909150556005600082600001518152602001908152602001600020339080600181540180825580915050600190039060005260206000200160009091909190916101000a81548173ffffffffffffffffffffffffffffffffffffffff021916908373ffffffffffffffffffffffffffffffffffffffff1602179055506001600660008360000151815260200190815260200160002060003373ffffffffffffffffffffffffffffffffffffffff1673ffffffffffffffffffffffffffffffffffffffff16815260200190815260200160002060006101000a81548160ff0219169083151502179055508060086000805481526020019081526020016000206000820151816000015560208201518160010160006101000a81548173ffffffffffffffffffffffffffffffffffffffff021916908373ffffffffffffffffffffffffffffffffffffffff16021790555060408201518160020155606082015181600301556080820151816004015560a0820151816005015560c0820151816006015560e082015181600701556101008201518160080160006101000a81548160ff0219169083151502179055509050506001600a600087815260200190815260200160002060003373ffffffffffffffffffffffffffffffffffffffff1673ffffffffffffffffffffffffffffffffffffffff16815260200190815260200160002060006101000a81548160ff02191690831515021790555060016009600087815260200190815260200160002054610d5291906124a8565b60096000878152602001908152602001600020819055503373ffffffffffffffffffffffffffffffffffffffff1681600001517f23ee0fa364202253cc921ccc2875f3262c31b5d3a2319a97fe04afad6d83b0ae8787604051610db69291906124dc565b60405180910390a35050505050565b60096020528060005260406000206000915090505481565b60046020528060005260406000206000915054906101000a900460ff1681565b60086020528060005260406000206000915090508060000154908060010160009054906101000a900473ffffffffffffffffffffffffffffffffffffffff16908060020154908060030154908060040154908060050154908060060154908060070154908060080160009054906101000a900460ff16905089565b6000610e83846115f3565b90506004600085815260200190815260200160002060009054906101000a900460ff1615610ee6576040517f08c379a0000000000000000000000000000000000000000000000000000000008152600401610edd90612551565b60405180910390fd5b8060c00151838390501115610f30576040517f08c379a0000000000000000000000000000000000000000000000000000000008152600401610f27906125e3565b60405180910390fd5b428160e0015110610f76576040517f08c379a0000000000000000000000000000000000000000000000000000000008152600401610f6d90612675565b60405180910390fd5b610f80843361158b565b610fbf576040517f08c379a0000000000000000000000000000000000000000000000000000000008152600401610fb6906126e1565b60405180910390fd5b60016004600086815260200190815260200160002060006101000a81548160ff021916908315150217905550600181610100019015159081151581525050600083839050905060008260800151905060008360c001519050600083148061102557508083145b156111585760005b81811015611152576000600560008a8152602001908152602001600020828154811061105c5761105b612701565b5b9060005260206000200160009054906101000a900473ffffffffffffffffffffffffffffffffffffffff1690506000808273ffffffffffffffffffffffffffffffffffffffff1685876110af919061275f565b6040516110bb906127c1565b60006040518083038185875af1925050503d80600081146110f8576040519150601f19603f3d011682016040523d82523d6000602084013e6110fd565b606091505b509150915081611142576040517f08c379a000000000000000000000000000000000000000000000000000000000815260040161113990612822565b60405180910390fd5b505050808060010191505061102d565b50611344565b60008383611166919061275f565b905060005b84811015611341576111a48989898481811061118a57611189612701565b5b905060200201602081019061119f9190611fb8565b61158b565b6111e3576040517f08c379a00000000000000000000000000000000000000000000000000000000081526004016111da906126e1565b60405180910390fd5b60008888838181106111f8576111f7612701565b5b905060200201602081019061120d9190611fb8565b90506000808273ffffffffffffffffffffffffffffffffffffffff1685604051611236906127c1565b60006040518083038185875af1925050503d8060008114611273576040519150601f19603f3d011682016040523d82523d6000602084013e611278565b606091505b5091509150816112bd576040517f08c379a00000000000000000000000000000000000000000000000000000000081526004016112b490612822565b60405180910390fd5b600760008d8152602001908152602001600020839080600181540180825580915050600190039060005260206000200160009091909190916101000a81548173ffffffffffffffffffffffffffffffffffffffff021916908373ffffffffffffffffffffffffffffffffffffffff160217905550505050808060010191505061116b565b50505b867f33e594f82663811673bbe01e06f46080cb6b7ac55b9b8fecec4f59ea32c690c187876040516113769291906128cd565b60405180910390a250505050505050565b6000611392826115f3565b90503373ffffffffffffffffffffffffffffffffffffffff16816020015173ffffffffffffffffffffffffffffffffffffffff1614611406576040517f08c379a00000000000000000000000000000000000000000000000000000000081526004016113fd90612963565b60405180910390fd5b60028160c001511061144d576040517f08c379a0000000000000000000000000000000000000000000000000000000008152600401611444906129cf565b60405180910390fd5b60008160200151905060008260600151905060018361010001901515908115158152505060016004600086815260200190815260200160002060006101000a81548160ff0219169083151502179055506000808373ffffffffffffffffffffffffffffffffffffffff16836040516114c4906127c1565b60006040518083038185875af1925050503d8060008114611501576040519150601f19603f3d011682016040523d82523d6000602084013e611506565b606091505b50915091508161154b576040517f08c379a000000000000000000000000000000000000000000000000000000000815260040161154290612822565b60405180910390fd5b857f6815d124b1b2881113f47ceeeed99d35eb0591aba9c53ae03d47fecb83a5ade13360405161157b9190611f1d565b60405180910390a2505050505050565b60006006600084815260200190815260200160002060008373ffffffffffffffffffffffffffffffffffffffff1673ffffffffffffffffffffffffffffffffffffffff16815260200190815260200160002060009054906101000a900460ff16905092915050565b6115fb6119b5565b6008600083815260200190815260200160002060405180610120016040529081600082015481526020016001820160009054906101000a900473ffffffffffffffffffffffffffffffffffffffff1673ffffffffffffffffffffffffffffffffffffffff1673ffffffffffffffffffffffffffffffffffffffff1681526020016002820154815260200160038201548152602001600482015481526020016005820154815260200160068201548152602001600782015481526020016008820160009054906101000a900460ff1615151515815250509050919050565b6000600a600084815260200190815260200160002060008373ffffffffffffffffffffffffffffffffffffffff1673ffffffffffffffffffffffffffffffffffffffff16815260200190815260200160002060009054906101000a900460ff16905092915050565b600160009054906101000a900473ffffffffffffffffffffffffffffffffffffffff1681565b6007602052816000526040600020818154811061178257600080fd5b906000526020600020016000915091509054906101000a900473ffffffffffffffffffffffffffffffffffffffff1681565b600060096000838152602001908152602001600020549050919050565b600560205281600052604060002081815481106117ed57600080fd5b906000526020600020016000915091509054906101000a900473ffffffffffffffffffffffffffffffffffffffff1681565b6003602052816000526040600020818154811061183b57600080fd5b90600052602060002001600091509150505481565b60005481565b6060600360008373ffffffffffffffffffffffffffffffffffffffff1673ffffffffffffffffffffffffffffffffffffffff1681526020019081526020016000208054806020026020016040519081016040528092919081815260200182805480156118e157602002820191906000526020600020905b8154815260200190600101908083116118cd575b50505050509050919050565b60026020528060005260406000206000915054906101000a900473ffffffffffffffffffffffffffffffffffffffff1681565b6001600860008381526020019081526020016000206006015461194391906124a8565b600860008381526020019081526020016000206006018190555050565b6008600082815260200190815260200160002060030154600860008381526020019081526020016000206004015461199891906124a8565b600860008381526020019081526020016000206004018190555050565b60405180610120016040528060008152602001600073ffffffffffffffffffffffffffffffffffffffff1681526020016000815260200160008152602001600081526020016000815260200160008152602001600081526020016000151581525090565b600080fd5b600080fd5b6000819050919050565b611a3681611a23565b8114611a4157600080fd5b50565b600081359050611a5381611a2d565b92915050565b600060208284031215611a6f57611a6e611a19565b5b6000611a7d84828501611a44565b91505092915050565b600081519050919050565b600082825260208201905092915050565b6000819050602082019050919050565b600073ffffffffffffffffffffffffffffffffffffffff82169050919050565b6000611add82611ab2565b9050919050565b611aed81611ad2565b82525050565b6000611aff8383611ae4565b60208301905092915050565b6000602082019050919050565b6000611b2382611a86565b611b2d8185611a91565b9350611b3883611aa2565b8060005b83811015611b69578151611b508882611af3565b9750611b5b83611b0b565b925050600181019050611b3c565b5085935050505092915050565b60006020820190508181036000830152611b908184611b18565b905092915050565b60008060008060808587031215611bb257611bb1611a19565b5b6000611bc087828801611a44565b9450506020611bd187828801611a44565b9350506040611be287828801611a44565b9250506060611bf387828801611a44565b91505092959194509250565b611c0881611a23565b82525050565b6000602082019050611c236000830184611bff565b92915050565b60008115159050919050565b611c3e81611c29565b82525050565b6000602082019050611c596000830184611c35565b92915050565b611c6881611ad2565b82525050565b600061012082019050611c84600083018c611bff565b611c91602083018b611c5f565b611c9e604083018a611bff565b611cab6060830189611bff565b611cb86080830188611bff565b611cc560a0830187611bff565b611cd260c0830186611bff565b611cdf60e0830185611bff565b611ced610100830184611c35565b9a9950505050505050505050565b600080fd5b600080fd5b600080fd5b60008083601f840112611d2057611d1f611cfb565b5b8235905067ffffffffffffffff811115611d3d57611d3c611d00565b5b602083019150836020820283011115611d5957611d58611d05565b5b9250929050565b600080600060408486031215611d7957611d78611a19565b5b6000611d8786828701611a44565b935050602084013567ffffffffffffffff811115611da857611da7611a1e565b5b611db486828701611d0a565b92509250509250925092565b611dc981611ad2565b8114611dd457600080fd5b50565b600081359050611de681611dc0565b92915050565b60008060408385031215611e0357611e02611a19565b5b6000611e1185828601611a44565b9250506020611e2285828601611dd7565b9150509250929050565b611e3581611a23565b82525050565b611e4481611c29565b82525050565b61012082016000820151611e616000850182611e2c565b506020820151611e746020850182611ae4565b506040820151611e876040850182611e2c565b506060820151611e9a6060850182611e2c565b506080820151611ead6080850182611e2c565b5060a0820151611ec060a0850182611e2c565b5060c0820151611ed360c0850182611e2c565b5060e0820151611ee660e0850182611e2c565b50610100820151611efb610100850182611e3b565b50505050565b600061012082019050611f176000830184611e4a565b92915050565b6000602082019050611f326000830184611c5f565b92915050565b60008060408385031215611f4f57611f4e611a19565b5b6000611f5d85828601611a44565b9250506020611f6e85828601611a44565b9150509250929050565b60008060408385031215611f8f57611f8e611a19565b5b6000611f9d85828601611dd7565b9250506020611fae85828601611a44565b9150509250929050565b600060208284031215611fce57611fcd611a19565b5b6000611fdc84828501611dd7565b91505092915050565b600081519050919050565b600082825260208201905092915050565b6000819050602082019050919050565b600061201d8383611e2c565b60208301905092915050565b6000602082019050919050565b600061204182611fe5565b61204b8185611ff0565b935061205683612001565b8060005b8381101561208757815161206e8882612011565b975061207983612029565b92505060018101905061205a565b5085935050505092915050565b600060208201905081810360008301526120ae8184612036565b905092915050565b600082825260208201905092915050565b7f43616e2774204a6f696e2057616765722c204d6174636820616c72656164792060008201527f5374617274656400000000000000000000000000000000000000000000000000602082015250565b60006121236027836120b6565b915061212e826120c7565b604082019050919050565b6000602082019050818103600083015261215281612116565b9050919050565b7f4164647265737320697320616c72656164792061207061727469636970616e74600082015250565b600061218f6020836120b6565b915061219a82612159565b602082019050919050565b600060208201905081810360008301526121be81612182565b9050919050565b7f4d617820456e747269657320666f72207468652057616765722052656163686560008201527f6400000000000000000000000000000000000000000000000000000000000000602082015250565b60006122216021836120b6565b915061222c826121c5565b604082019050919050565b6000602082019050818103600083015261225081612214565b9050919050565b7f53656e742056616c7565206d75737420626520657175616c20746f205374616b60008201527f6500000000000000000000000000000000000000000000000000000000000000602082015250565b60006122b36021836120b6565b91506122be82612257565b604082019050919050565b600060208201905081810360008301526122e2816122a6565b9050919050565b7f5374616b65206d7573742062652067726561746572207468616e207a65726f00600082015250565b600061231f601f836120b6565b915061232a826122e9565b602082019050919050565b6000602082019050818103600083015261234e81612312565b9050919050565b7f4d617820456e7472696573206d7573742062652067726561746572207468616e60008201527f207a65726f000000000000000000000000000000000000000000000000000000602082015250565b60006123b16025836120b6565b91506123bc82612355565b604082019050919050565b600060208201905081810360008301526123e0816123a4565b9050919050565b7f5573657220616c7265616479206372656174656420776167657220666f72207460008201527f6869732067616d65000000000000000000000000000000000000000000000000602082015250565b60006124436028836120b6565b915061244e826123e7565b604082019050919050565b6000602082019050818103600083015261247281612436565b9050919050565b7f4e487b7100000000000000000000000000000000000000000000000000000000600052601160045260246000fd5b60006124b382611a23565b91506124be83611a23565b92508282019050808211156124d6576124d5612479565b5b92915050565b60006040820190506124f16000830185611bff565b6124fe6020830184611bff565b9392505050565b7f576167657220686173206265656e207265736f6c766564000000000000000000600082015250565b600061253b6017836120b6565b915061254682612505565b602082019050919050565b6000602082019050818103600083015261256a8161252e565b9050919050565b7f57696e6e65727320417272617920497320426967676572207468616e2057616760008201527f657220456e747269657300000000000000000000000000000000000000000000602082015250565b60006125cd602a836120b6565b91506125d882612571565b604082019050919050565b600060208201905081810360008301526125fc816125c0565b9050919050565b7f43616e2774205265736f6c76652057616765722c204d61746368204861766e2760008201527f7420537461727465640000000000000000000000000000000000000000000000602082015250565b600061265f6029836120b6565b915061266a82612603565b604082019050919050565b6000602082019050818103600083015261268e81612652565b9050919050565b7f41646472657373206973206e6f742061207061727469636970616e7400000000600082015250565b60006126cb601c836120b6565b91506126d682612695565b602082019050919050565b600060208201905081810360008301526126fa816126be565b9050919050565b7f4e487b7100000000000000000000000000000000000000000000000000000000600052603260045260246000fd5b7f4e487b7100000000000000000000000000000000000000000000000000000000600052601260045260246000fd5b600061276a82611a23565b915061277583611a23565b92508261278557612784612730565b5b828204905092915050565b600081905092915050565b50565b60006127ab600083612790565b91506127b68261279b565b600082019050919050565b60006127cc8261279e565b9150819050919050565b7f4661696c656420746f2073656e64204574686572000000000000000000000000600082015250565b600061280c6014836120b6565b9150612817826127d6565b602082019050919050565b6000602082019050818103600083015261283b816127ff565b9050919050565b6000819050919050565b600061285b6020840184611dd7565b905092915050565b6000602082019050919050565b600061287c8385611a91565b935061288782612842565b8060005b858110156128c05761289d828461284c565b6128a78882611af3565b97506128b283612863565b92505060018101905061288b565b5085925050509392505050565b600060208201905081810360008301526128e8818486612870565b90509392505050565b7f4f6e6c79207468652063726561746f722063616e2063616e636c65207468652060008201527f7374616b65000000000000000000000000000000000000000000000000000000602082015250565b600061294d6025836120b6565b9150612958826128f1565b604082019050919050565b6000602082019050818103600083015261297c81612940565b9050919050565b7f4d6f7265207468616e206f6e65207573657220686173207374616b6564000000600082015250565b60006129b9601d836120b6565b91506129c482612983565b602082019050919050565b600060208201905081810360008301526129e8816129ac565b905091905056fea26469706673582212206305be4c37d5c641aad2321c7535910ce4629360aa85d109d6ffa14e5435702d64736f6c63430008190033",
          "opcodes": "PUSH1 0x80 PUSH1 0x40 MSTORE CALLVALUE DUP1 ISZERO PUSH1 0xF JUMPI PUSH1 0x0 DUP1 REVERT JUMPDEST POP CALLER PUSH1 0x1 PUSH1 0x0 PUSH2 0x100 EXP DUP2 SLOAD DUP2 PUSH20 0xFFFFFFFFFFFFFFFFFFFFFFFFFFFFFFFFFFFFFFFF MUL NOT AND SWAP1 DUP4 PUSH20 0xFFFFFFFFFFFFFFFFFFFFFFFFFFFFFFFFFFFFFFFF AND MUL OR SWAP1 SSTORE POP PUSH2 0x2A25 DUP1 PUSH2 0x60 PUSH1 0x0 CODECOPY PUSH1 0x0 RETURN INVALID PUSH1 0x80 PUSH1 0x40 MSTORE PUSH1 0x4 CALLDATASIZE LT PUSH2 0x118 JUMPI PUSH1 0x0 CALLDATALOAD PUSH1 0xE0 SHR DUP1 PUSH4 0x7A2756F2 GT PUSH2 0xA0 JUMPI DUP1 PUSH4 0xCC459288 GT PUSH2 0x64 JUMPI DUP1 PUSH4 0xCC459288 EQ PUSH2 0x3F9 JUMPI DUP1 PUSH4 0xD8A66792 EQ PUSH2 0x436 JUMPI DUP1 PUSH4 0xDEF972E1 EQ PUSH2 0x473 JUMPI DUP1 PUSH4 0xE0D2AD37 EQ PUSH2 0x49E JUMPI DUP1 PUSH4 0xFB1BC0CC EQ PUSH2 0x4DB JUMPI PUSH2 0x11F JUMP JUMPDEST DUP1 PUSH4 0x7A2756F2 EQ PUSH2 0x2DA JUMPI DUP1 PUSH4 0x8B26C303 EQ PUSH2 0x317 JUMPI DUP1 PUSH4 0x8DA5CB5B EQ PUSH2 0x354 JUMPI DUP1 PUSH4 0xB97DB251 EQ PUSH2 0x37F JUMPI DUP1 PUSH4 0xBEB88B93 EQ PUSH2 0x3BC JUMPI PUSH2 0x11F JUMP JUMPDEST DUP1 PUSH4 0x2580EB72 GT PUSH2 0xE7 JUMPI DUP1 PUSH4 0x2580EB72 EQ PUSH2 0x1D6 JUMPI DUP1 PUSH4 0x375068E5 EQ PUSH2 0x213 JUMPI DUP1 PUSH4 0x514F0FE0 EQ PUSH2 0x258 JUMPI DUP1 PUSH4 0x53922ADA EQ PUSH2 0x281 JUMPI DUP1 PUSH4 0x758D9B89 EQ PUSH2 0x29D JUMPI PUSH2 0x11F JUMP JUMPDEST DUP1 PUSH4 0x8492E2C EQ PUSH2 0x124 JUMPI DUP1 PUSH4 0xC0ECC95 EQ PUSH2 0x140 JUMPI DUP1 PUSH4 0xE740147 EQ PUSH2 0x17D JUMPI DUP1 PUSH4 0x22A1B1DE EQ PUSH2 0x199 JUMPI PUSH2 0x11F JUMP JUMPDEST CALLDATASIZE PUSH2 0x11F JUMPI STOP JUMPDEST PUSH1 0x0 DUP1 REVERT JUMPDEST PUSH2 0x13E PUSH1 0x4 DUP1 CALLDATASIZE SUB DUP2 ADD SWAP1 PUSH2 0x139 SWAP2 SWAP1 PUSH2 0x1A59 JUMP JUMPDEST PUSH2 0x518 JUMP JUMPDEST STOP JUMPDEST CALLVALUE DUP1 ISZERO PUSH2 0x14C JUMPI PUSH1 0x0 DUP1 REVERT JUMPDEST POP PUSH2 0x167 PUSH1 0x4 DUP1 CALLDATASIZE SUB DUP2 ADD SWAP1 PUSH2 0x162 SWAP2 SWAP1 PUSH2 0x1A59 JUMP JUMPDEST PUSH2 0x7E2 JUMP JUMPDEST PUSH1 0x40 MLOAD PUSH2 0x174 SWAP2 SWAP1 PUSH2 0x1B76 JUMP JUMPDEST PUSH1 0x40 MLOAD DUP1 SWAP2 SUB SWAP1 RETURN JUMPDEST PUSH2 0x197 PUSH1 0x4 DUP1 CALLDATASIZE SUB DUP2 ADD SWAP1 PUSH2 0x192 SWAP2 SWAP1 PUSH2 0x1B98 JUMP JUMPDEST PUSH2 0x883 JUMP JUMPDEST STOP JUMPDEST CALLVALUE DUP1 ISZERO PUSH2 0x1A5 JUMPI PUSH1 0x0 DUP1 REVERT JUMPDEST POP PUSH2 0x1C0 PUSH1 0x4 DUP1 CALLDATASIZE SUB DUP2 ADD SWAP1 PUSH2 0x1BB SWAP2 SWAP1 PUSH2 0x1A59 JUMP JUMPDEST PUSH2 0xDC5 JUMP JUMPDEST PUSH1 0x40 MLOAD PUSH2 0x1CD SWAP2 SWAP1 PUSH2 0x1C0E JUMP JUMPDEST PUSH1 0x40 MLOAD DUP1 SWAP2 SUB SWAP1 RETURN JUMPDEST CALLVALUE DUP1 ISZERO PUSH2 0x1E2 JUMPI PUSH1 0x0 DUP1 REVERT JUMPDEST POP PUSH2 0x1FD PUSH1 0x4 DUP1 CALLDATASIZE SUB DUP2 ADD SWAP1 PUSH2 0x1F8 SWAP2 SWAP1 PUSH2 0x1A59 JUMP JUMPDEST PUSH2 0xDDD JUMP JUMPDEST PUSH1 0x40 MLOAD PUSH2 0x20A SWAP2 SWAP1 PUSH2 0x1C44 JUMP JUMPDEST PUSH1 0x40 MLOAD DUP1 SWAP2 SUB SWAP1 RETURN JUMPDEST CALLVALUE DUP1 ISZERO PUSH2 0x21F JUMPI PUSH1 0x0 DUP1 REVERT JUMPDEST POP PUSH2 0x23A PUSH1 0x4 DUP1 CALLDATASIZE SUB DUP2 ADD SWAP1 PUSH2 0x235 SWAP2 SWAP1 PUSH2 0x1A59 JUMP JUMPDEST PUSH2 0xDFD JUMP JUMPDEST PUSH1 0x40 MLOAD PUSH2 0x24F SWAP10 SWAP9 SWAP8 SWAP7 SWAP6 SWAP5 SWAP4 SWAP3 SWAP2 SWAP1 PUSH2 0x1C6E JUMP JUMPDEST PUSH1 0x40 MLOAD DUP1 SWAP2 SUB SWAP1 RETURN JUMPDEST CALLVALUE DUP1 ISZERO PUSH2 0x264 JUMPI PUSH1 0x0 DUP1 REVERT JUMPDEST POP PUSH2 0x27F PUSH1 0x4 DUP1 CALLDATASIZE SUB DUP2 ADD SWAP1 PUSH2 0x27A SWAP2 SWAP1 PUSH2 0x1D60 JUMP JUMPDEST PUSH2 0xE78 JUMP JUMPDEST STOP JUMPDEST PUSH2 0x29B PUSH1 0x4 DUP1 CALLDATASIZE SUB DUP2 ADD SWAP1 PUSH2 0x296 SWAP2 SWAP1 PUSH2 0x1A59 JUMP JUMPDEST PUSH2 0x1387 JUMP JUMPDEST STOP JUMPDEST CALLVALUE DUP1 ISZERO PUSH2 0x2A9 JUMPI PUSH1 0x0 DUP1 REVERT JUMPDEST POP PUSH2 0x2C4 PUSH1 0x4 DUP1 CALLDATASIZE SUB DUP2 ADD SWAP1 PUSH2 0x2BF SWAP2 SWAP1 PUSH2 0x1DEC JUMP JUMPDEST PUSH2 0x158B JUMP JUMPDEST PUSH1 0x40 MLOAD PUSH2 0x2D1 SWAP2 SWAP1 PUSH2 0x1C44 JUMP JUMPDEST PUSH1 0x40 MLOAD DUP1 SWAP2 SUB SWAP1 RETURN JUMPDEST CALLVALUE DUP1 ISZERO PUSH2 0x2E6 JUMPI PUSH1 0x0 DUP1 REVERT JUMPDEST POP PUSH2 0x301 PUSH1 0x4 DUP1 CALLDATASIZE SUB DUP2 ADD SWAP1 PUSH2 0x2FC SWAP2 SWAP1 PUSH2 0x1A59 JUMP JUMPDEST PUSH2 0x15F3 JUMP JUMPDEST PUSH1 0x40 MLOAD PUSH2 0x30E SWAP2 SWAP1 PUSH2 0x1F01 JUMP JUMPDEST PUSH1 0x40 MLOAD DUP1 SWAP2 SUB SWAP1 RETURN JUMPDEST CALLVALUE DUP1 ISZERO PUSH2 0x323 JUMPI PUSH1 0x0 DUP1 REVERT JUMPDEST POP PUSH2 0x33E PUSH1 0x4 DUP1 CALLDATASIZE SUB DUP2 ADD SWAP1 PUSH2 0x339 SWAP2 SWAP1 PUSH2 0x1DEC JUMP JUMPDEST PUSH2 0x16D8 JUMP JUMPDEST PUSH1 0x40 MLOAD PUSH2 0x34B SWAP2 SWAP1 PUSH2 0x1C44 JUMP JUMPDEST PUSH1 0x40 MLOAD DUP1 SWAP2 SUB SWAP1 RETURN JUMPDEST CALLVALUE DUP1 ISZERO PUSH2 0x360 JUMPI PUSH1 0x0 DUP1 REVERT JUMPDEST POP PUSH2 0x369 PUSH2 0x1740 JUMP JUMPDEST PUSH1 0x40 MLOAD PUSH2 0x376 SWAP2 SWAP1 PUSH2 0x1F1D JUMP JUMPDEST PUSH1 0x40 MLOAD DUP1 SWAP2 SUB SWAP1 RETURN JUMPDEST CALLVALUE DUP1 ISZERO PUSH2 0x38B JUMPI PUSH1 0x0 DUP1 REVERT JUMPDEST POP PUSH2 0x3A6 PUSH1 0x4 DUP1 CALLDATASIZE SUB DUP2 ADD SWAP1 PUSH2 0x3A1 SWAP2 SWAP1 PUSH2 0x1F38 JUMP JUMPDEST PUSH2 0x1766 JUMP JUMPDEST PUSH1 0x40 MLOAD PUSH2 0x3B3 SWAP2 SWAP1 PUSH2 0x1F1D JUMP JUMPDEST PUSH1 0x40 MLOAD DUP1 SWAP2 SUB SWAP1 RETURN JUMPDEST CALLVALUE DUP1 ISZERO PUSH2 0x3C8 JUMPI PUSH1 0x0 DUP1 REVERT JUMPDEST POP PUSH2 0x3E3 PUSH1 0x4 DUP1 CALLDATASIZE SUB DUP2 ADD SWAP1 PUSH2 0x3DE SWAP2 SWAP1 PUSH2 0x1A59 JUMP JUMPDEST PUSH2 0x17B4 JUMP JUMPDEST PUSH1 0x40 MLOAD PUSH2 0x3F0 SWAP2 SWAP1 PUSH2 0x1C0E JUMP JUMPDEST PUSH1 0x40 MLOAD DUP1 SWAP2 SUB SWAP1 RETURN JUMPDEST CALLVALUE DUP1 ISZERO PUSH2 0x405 JUMPI PUSH1 0x0 DUP1 REVERT JUMPDEST POP PUSH2 0x420 PUSH1 0x4 DUP1 CALLDATASIZE SUB DUP2 ADD SWAP1 PUSH2 0x41B SWAP2 SWAP1 PUSH2 0x1F38 JUMP JUMPDEST PUSH2 0x17D1 JUMP JUMPDEST PUSH1 0x40 MLOAD PUSH2 0x42D SWAP2 SWAP1 PUSH2 0x1F1D JUMP JUMPDEST PUSH1 0x40 MLOAD DUP1 SWAP2 SUB SWAP1 RETURN JUMPDEST CALLVALUE DUP1 ISZERO PUSH2 0x442 JUMPI PUSH1 0x0 DUP1 REVERT JUMPDEST POP PUSH2 0x45D PUSH1 0x4 DUP1 CALLDATASIZE SUB DUP2 ADD SWAP1 PUSH2 0x458 SWAP2 SWAP1 PUSH2 0x1F78 JUMP JUMPDEST PUSH2 0x181F JUMP JUMPDEST PUSH1 0x40 MLOAD PUSH2 0x46A SWAP2 SWAP1 PUSH2 0x1C0E JUMP JUMPDEST PUSH1 0x40 MLOAD DUP1 SWAP2 SUB SWAP1 RETURN JUMPDEST CALLVALUE DUP1 ISZERO PUSH2 0x47F JUMPI PUSH1 0x0 DUP1 REVERT JUMPDEST POP PUSH2 0x488 PUSH2 0x1850 JUMP JUMPDEST PUSH1 0x40 MLOAD PUSH2 0x495 SWAP2 SWAP1 PUSH2 0x1C0E JUMP JUMPDEST PUSH1 0x40 MLOAD DUP1 SWAP2 SUB SWAP1 RETURN JUMPDEST CALLVALUE DUP1 ISZERO PUSH2 0x4AA JUMPI PUSH1 0x0 DUP1 REVERT JUMPDEST POP PUSH2 0x4C5 PUSH1 0x4 DUP1 CALLDATASIZE SUB DUP2 ADD SWAP1 PUSH2 0x4C0 SWAP2 SWAP1 PUSH2 0x1FB8 JUMP JUMPDEST PUSH2 0x1856 JUMP JUMPDEST PUSH1 0x40 MLOAD PUSH2 0x4D2 SWAP2 SWAP1 PUSH2 0x2094 JUMP JUMPDEST PUSH1 0x40 MLOAD DUP1 SWAP2 SUB SWAP1 RETURN JUMPDEST CALLVALUE DUP1 ISZERO PUSH2 0x4E7 JUMPI PUSH1 0x0 DUP1 REVERT JUMPDEST POP PUSH2 0x502 PUSH1 0x4 DUP1 CALLDATASIZE SUB DUP2 ADD SWAP1 PUSH2 0x4FD SWAP2 SWAP1 PUSH2 0x1A59 JUMP JUMPDEST PUSH2 0x18ED JUMP JUMPDEST PUSH1 0x40 MLOAD PUSH2 0x50F SWAP2 SWAP1 PUSH2 0x1F1D JUMP JUMPDEST PUSH1 0x40 MLOAD DUP1 SWAP2 SUB SWAP1 RETURN JUMPDEST PUSH1 0x0 PUSH2 0x523 DUP3 PUSH2 0x15F3 JUMP JUMPDEST SWAP1 POP TIMESTAMP DUP2 PUSH1 0xE0 ADD MLOAD GT PUSH2 0x56B JUMPI PUSH1 0x40 MLOAD PUSH32 0x8C379A000000000000000000000000000000000000000000000000000000000 DUP2 MSTORE PUSH1 0x4 ADD PUSH2 0x562 SWAP1 PUSH2 0x2139 JUMP JUMPDEST PUSH1 0x40 MLOAD DUP1 SWAP2 SUB SWAP1 REVERT JUMPDEST PUSH2 0x575 DUP3 CALLER PUSH2 0x158B JUMP JUMPDEST ISZERO PUSH2 0x5B5 JUMPI PUSH1 0x40 MLOAD PUSH32 0x8C379A000000000000000000000000000000000000000000000000000000000 DUP2 MSTORE PUSH1 0x4 ADD PUSH2 0x5AC SWAP1 PUSH2 0x21A5 JUMP JUMPDEST PUSH1 0x40 MLOAD DUP1 SWAP2 SUB SWAP1 REVERT JUMPDEST DUP1 PUSH1 0xA0 ADD MLOAD DUP2 PUSH1 0xC0 ADD MLOAD LT PUSH2 0x5FF JUMPI PUSH1 0x40 MLOAD PUSH32 0x8C379A000000000000000000000000000000000000000000000000000000000 DUP2 MSTORE PUSH1 0x4 ADD PUSH2 0x5F6 SWAP1 PUSH2 0x2237 JUMP JUMPDEST PUSH1 0x40 MLOAD DUP1 SWAP2 SUB SWAP1 REVERT JUMPDEST DUP1 PUSH1 0x60 ADD MLOAD CALLVALUE EQ PUSH2 0x645 JUMPI PUSH1 0x40 MLOAD PUSH32 0x8C379A000000000000000000000000000000000000000000000000000000000 DUP2 MSTORE PUSH1 0x4 ADD PUSH2 0x63C SWAP1 PUSH2 0x22C9 JUMP JUMPDEST PUSH1 0x40 MLOAD DUP1 SWAP2 SUB SWAP1 REVERT JUMPDEST PUSH1 0x3 PUSH1 0x0 CALLER PUSH20 0xFFFFFFFFFFFFFFFFFFFFFFFFFFFFFFFFFFFFFFFF AND PUSH20 0xFFFFFFFFFFFFFFFFFFFFFFFFFFFFFFFFFFFFFFFF AND DUP2 MSTORE PUSH1 0x20 ADD SWAP1 DUP2 MSTORE PUSH1 0x20 ADD PUSH1 0x0 KECCAK256 DUP3 SWAP1 DUP1 PUSH1 0x1 DUP2 SLOAD ADD DUP1 DUP3 SSTORE DUP1 SWAP2 POP POP PUSH1 0x1 SWAP1 SUB SWAP1 PUSH1 0x0 MSTORE PUSH1 0x20 PUSH1 0x0 KECCAK256 ADD PUSH1 0x0 SWAP1 SWAP2 SWAP1 SWAP2 SWAP1 SWAP2 POP SSTORE PUSH1 0x5 PUSH1 0x0 DUP4 DUP2 MSTORE PUSH1 0x20 ADD SWAP1 DUP2 MSTORE PUSH1 0x20 ADD PUSH1 0x0 KECCAK256 CALLER SWAP1 DUP1 PUSH1 0x1 DUP2 SLOAD ADD DUP1 DUP3 SSTORE DUP1 SWAP2 POP POP PUSH1 0x1 SWAP1 SUB SWAP1 PUSH1 0x0 MSTORE PUSH1 0x20 PUSH1 0x0 KECCAK256 ADD PUSH1 0x0 SWAP1 SWAP2 SWAP1 SWAP2 SWAP1 SWAP2 PUSH2 0x100 EXP DUP2 SLOAD DUP2 PUSH20 0xFFFFFFFFFFFFFFFFFFFFFFFFFFFFFFFFFFFFFFFF MUL NOT AND SWAP1 DUP4 PUSH20 0xFFFFFFFFFFFFFFFFFFFFFFFFFFFFFFFFFFFFFFFF AND MUL OR SWAP1 SSTORE POP PUSH1 0x1 PUSH1 0x6 PUSH1 0x0 DUP5 DUP2 MSTORE PUSH1 0x20 ADD SWAP1 DUP2 MSTORE PUSH1 0x20 ADD PUSH1 0x0 KECCAK256 PUSH1 0x0 CALLER PUSH20 0xFFFFFFFFFFFFFFFFFFFFFFFFFFFFFFFFFFFFFFFF AND PUSH20 0xFFFFFFFFFFFFFFFFFFFFFFFFFFFFFFFFFFFFFFFF AND DUP2 MSTORE PUSH1 0x20 ADD SWAP1 DUP2 MSTORE PUSH1 0x20 ADD PUSH1 0x0 KECCAK256 PUSH1 0x0 PUSH2 0x100 EXP DUP2 SLOAD DUP2 PUSH1 0xFF MUL NOT AND SWAP1 DUP4 ISZERO ISZERO MUL OR SWAP1 SSTORE POP PUSH2 0x791 DUP3 PUSH2 0x1920 JUMP JUMPDEST PUSH2 0x79A DUP3 PUSH2 0x1960 JUMP JUMPDEST CALLER PUSH20 0xFFFFFFFFFFFFFFFFFFFFFFFFFFFFFFFFFFFFFFFF AND DUP3 PUSH32 0x77C5E110C36F6B7FA67AEEC58E5D9F649E15F085552BED2C68A82B68660D0DE8 PUSH1 0x40 MLOAD PUSH1 0x40 MLOAD DUP1 SWAP2 SUB SWAP1 LOG3 POP POP JUMP JUMPDEST PUSH1 0x60 PUSH1 0x7 PUSH1 0x0 DUP4 DUP2 MSTORE PUSH1 0x20 ADD SWAP1 DUP2 MSTORE PUSH1 0x20 ADD PUSH1 0x0 KECCAK256 DUP1 SLOAD DUP1 PUSH1 0x20 MUL PUSH1 0x20 ADD PUSH1 0x40 MLOAD SWAP1 DUP2 ADD PUSH1 0x40 MSTORE DUP1 SWAP3 SWAP2 SWAP1 DUP2 DUP2 MSTORE PUSH1 0x20 ADD DUP3 DUP1 SLOAD DUP1 ISZERO PUSH2 0x877 JUMPI PUSH1 0x20 MUL DUP3 ADD SWAP2 SWAP1 PUSH1 0x0 MSTORE PUSH1 0x20 PUSH1 0x0 KECCAK256 SWAP1 JUMPDEST DUP2 PUSH1 0x0 SWAP1 SLOAD SWAP1 PUSH2 0x100 EXP SWAP1 DIV PUSH20 0xFFFFFFFFFFFFFFFFFFFFFFFFFFFFFFFFFFFFFFFF AND PUSH20 0xFFFFFFFFFFFFFFFFFFFFFFFFFFFFFFFFFFFFFFFF AND DUP2 MSTORE PUSH1 0x20 ADD SWAP1 PUSH1 0x1 ADD SWAP1 DUP1 DUP4 GT PUSH2 0x82D JUMPI JUMPDEST POP POP POP POP POP SWAP1 POP SWAP2 SWAP1 POP JUMP JUMPDEST PUSH1 0x0 DUP4 GT PUSH2 0x8C6 JUMPI PUSH1 0x40 MLOAD PUSH32 0x8C379A000000000000000000000000000000000000000000000000000000000 DUP2 MSTORE PUSH1 0x4 ADD PUSH2 0x8BD SWAP1 PUSH2 0x2335 JUMP JUMPDEST PUSH1 0x40 MLOAD DUP1 SWAP2 SUB SWAP1 REVERT JUMPDEST PUSH1 0x1 DUP3 GT PUSH2 0x909 JUMPI PUSH1 0x40 MLOAD PUSH32 0x8C379A000000000000000000000000000000000000000000000000000000000 DUP2 MSTORE PUSH1 0x4 ADD PUSH2 0x900 SWAP1 PUSH2 0x23C7 JUMP JUMPDEST PUSH1 0x40 MLOAD DUP1 SWAP2 SUB SWAP1 REVERT JUMPDEST DUP3 CALLVALUE EQ PUSH2 0x94B JUMPI PUSH1 0x40 MLOAD PUSH32 0x8C379A000000000000000000000000000000000000000000000000000000000 DUP2 MSTORE PUSH1 0x4 ADD PUSH2 0x942 SWAP1 PUSH2 0x22C9 JUMP JUMPDEST PUSH1 0x40 MLOAD DUP1 SWAP2 SUB SWAP1 REVERT JUMPDEST PUSH1 0xA PUSH1 0x0 DUP6 DUP2 MSTORE PUSH1 0x20 ADD SWAP1 DUP2 MSTORE PUSH1 0x20 ADD PUSH1 0x0 KECCAK256 PUSH1 0x0 CALLER PUSH20 0xFFFFFFFFFFFFFFFFFFFFFFFFFFFFFFFFFFFFFFFF AND PUSH20 0xFFFFFFFFFFFFFFFFFFFFFFFFFFFFFFFFFFFFFFFF AND DUP2 MSTORE PUSH1 0x20 ADD SWAP1 DUP2 MSTORE PUSH1 0x20 ADD PUSH1 0x0 KECCAK256 PUSH1 0x0 SWAP1 SLOAD SWAP1 PUSH2 0x100 EXP SWAP1 DIV PUSH1 0xFF AND ISZERO PUSH2 0x9E9 JUMPI PUSH1 0x40 MLOAD PUSH32 0x8C379A000000000000000000000000000000000000000000000000000000000 DUP2 MSTORE PUSH1 0x4 ADD PUSH2 0x9E0 SWAP1 PUSH2 0x2459 JUMP JUMPDEST PUSH1 0x40 MLOAD DUP1 SWAP2 SUB SWAP1 REVERT JUMPDEST PUSH1 0x1 PUSH1 0x0 SLOAD PUSH2 0x9F8 SWAP2 SWAP1 PUSH2 0x24A8 JUMP JUMPDEST PUSH1 0x0 DUP2 SWAP1 SSTORE POP PUSH1 0x0 PUSH1 0x40 MLOAD DUP1 PUSH2 0x120 ADD PUSH1 0x40 MSTORE DUP1 PUSH1 0x0 SLOAD DUP2 MSTORE PUSH1 0x20 ADD CALLER PUSH20 0xFFFFFFFFFFFFFFFFFFFFFFFFFFFFFFFFFFFFFFFF AND DUP2 MSTORE PUSH1 0x20 ADD DUP7 DUP2 MSTORE PUSH1 0x20 ADD DUP6 DUP2 MSTORE PUSH1 0x20 ADD DUP6 DUP2 MSTORE PUSH1 0x20 ADD DUP5 DUP2 MSTORE PUSH1 0x20 ADD PUSH1 0x1 DUP2 MSTORE PUSH1 0x20 ADD DUP4 DUP2 MSTORE PUSH1 0x20 ADD PUSH1 0x0 ISZERO ISZERO DUP2 MSTORE POP SWAP1 POP CALLER PUSH1 0x2 PUSH1 0x0 DUP4 PUSH1 0x0 ADD MLOAD DUP2 MSTORE PUSH1 0x20 ADD SWAP1 DUP2 MSTORE PUSH1 0x20 ADD PUSH1 0x0 KECCAK256 PUSH1 0x0 PUSH2 0x100 EXP DUP2 SLOAD DUP2 PUSH20 0xFFFFFFFFFFFFFFFFFFFFFFFFFFFFFFFFFFFFFFFF MUL NOT AND SWAP1 DUP4 PUSH20 0xFFFFFFFFFFFFFFFFFFFFFFFFFFFFFFFFFFFFFFFF AND MUL OR SWAP1 SSTORE POP PUSH1 0x3 PUSH1 0x0 CALLER PUSH20 0xFFFFFFFFFFFFFFFFFFFFFFFFFFFFFFFFFFFFFFFF AND PUSH20 0xFFFFFFFFFFFFFFFFFFFFFFFFFFFFFFFFFFFFFFFF AND DUP2 MSTORE PUSH1 0x20 ADD SWAP1 DUP2 MSTORE PUSH1 0x20 ADD PUSH1 0x0 KECCAK256 DUP2 PUSH1 0x0 ADD MLOAD SWAP1 DUP1 PUSH1 0x1 DUP2 SLOAD ADD DUP1 DUP3 SSTORE DUP1 SWAP2 POP POP PUSH1 0x1 SWAP1 SUB SWAP1 PUSH1 0x0 MSTORE PUSH1 0x20 PUSH1 0x0 KECCAK256 ADD PUSH1 0x0 SWAP1 SWAP2 SWAP1 SWAP2 SWAP1 SWAP2 POP SSTORE PUSH1 0x5 PUSH1 0x0 DUP3 PUSH1 0x0 ADD MLOAD DUP2 MSTORE PUSH1 0x20 ADD SWAP1 DUP2 MSTORE PUSH1 0x20 ADD PUSH1 0x0 KECCAK256 CALLER SWAP1 DUP1 PUSH1 0x1 DUP2 SLOAD ADD DUP1 DUP3 SSTORE DUP1 SWAP2 POP POP PUSH1 0x1 SWAP1 SUB SWAP1 PUSH1 0x0 MSTORE PUSH1 0x20 PUSH1 0x0 KECCAK256 ADD PUSH1 0x0 SWAP1 SWAP2 SWAP1 SWAP2 SWAP1 SWAP2 PUSH2 0x100 EXP DUP2 SLOAD DUP2 PUSH20 0xFFFFFFFFFFFFFFFFFFFFFFFFFFFFFFFFFFFFFFFF MUL NOT AND SWAP1 DUP4 PUSH20 0xFFFFFFFFFFFFFFFFFFFFFFFFFFFFFFFFFFFFFFFF AND MUL OR SWAP1 SSTORE POP PUSH1 0x1 PUSH1 0x6 PUSH1 0x0 DUP4 PUSH1 0x0 ADD MLOAD DUP2 MSTORE PUSH1 0x20 ADD SWAP1 DUP2 MSTORE PUSH1 0x20 ADD PUSH1 0x0 KECCAK256 PUSH1 0x0 CALLER PUSH20 0xFFFFFFFFFFFFFFFFFFFFFFFFFFFFFFFFFFFFFFFF AND PUSH20 0xFFFFFFFFFFFFFFFFFFFFFFFFFFFFFFFFFFFFFFFF AND DUP2 MSTORE PUSH1 0x20 ADD SWAP1 DUP2 MSTORE PUSH1 0x20 ADD PUSH1 0x0 KECCAK256 PUSH1 0x0 PUSH2 0x100 EXP DUP2 SLOAD DUP2 PUSH1 0xFF MUL NOT AND SWAP1 DUP4 ISZERO ISZERO MUL OR SWAP1 SSTORE POP DUP1 PUSH1 0x8 PUSH1 0x0 DUP1 SLOAD DUP2 MSTORE PUSH1 0x20 ADD SWAP1 DUP2 MSTORE PUSH1 0x20 ADD PUSH1 0x0 KECCAK256 PUSH1 0x0 DUP3 ADD MLOAD DUP2 PUSH1 0x0 ADD SSTORE PUSH1 0x20 DUP3 ADD MLOAD DUP2 PUSH1 0x1 ADD PUSH1 0x0 PUSH2 0x100 EXP DUP2 SLOAD DUP2 PUSH20 0xFFFFFFFFFFFFFFFFFFFFFFFFFFFFFFFFFFFFFFFF MUL NOT AND SWAP1 DUP4 PUSH20 0xFFFFFFFFFFFFFFFFFFFFFFFFFFFFFFFFFFFFFFFF AND MUL OR SWAP1 SSTORE POP PUSH1 0x40 DUP3 ADD MLOAD DUP2 PUSH1 0x2 ADD SSTORE PUSH1 0x60 DUP3 ADD MLOAD DUP2 PUSH1 0x3 ADD SSTORE PUSH1 0x80 DUP3 ADD MLOAD DUP2 PUSH1 0x4 ADD SSTORE PUSH1 0xA0 DUP3 ADD MLOAD DUP2 PUSH1 0x5 ADD SSTORE PUSH1 0xC0 DUP3 ADD MLOAD DUP2 PUSH1 0x6 ADD SSTORE PUSH1 0xE0 DUP3 ADD MLOAD DUP2 PUSH1 0x7 ADD SSTORE PUSH2 0x100 DUP3 ADD MLOAD DUP2 PUSH1 0x8 ADD PUSH1 0x0 PUSH2 0x100 EXP DUP2 SLOAD DUP2 PUSH1 0xFF MUL NOT AND SWAP1 DUP4 ISZERO ISZERO MUL OR SWAP1 SSTORE POP SWAP1 POP POP PUSH1 0x1 PUSH1 0xA PUSH1 0x0 DUP8 DUP2 MSTORE PUSH1 0x20 ADD SWAP1 DUP2 MSTORE PUSH1 0x20 ADD PUSH1 0x0 KECCAK256 PUSH1 0x0 CALLER PUSH20 0xFFFFFFFFFFFFFFFFFFFFFFFFFFFFFFFFFFFFFFFF AND PUSH20 0xFFFFFFFFFFFFFFFFFFFFFFFFFFFFFFFFFFFFFFFF AND DUP2 MSTORE PUSH1 0x20 ADD SWAP1 DUP2 MSTORE PUSH1 0x20 ADD PUSH1 0x0 KECCAK256 PUSH1 0x0 PUSH2 0x100 EXP DUP2 SLOAD DUP2 PUSH1 0xFF MUL NOT AND SWAP1 DUP4 ISZERO ISZERO MUL OR SWAP1 SSTORE POP PUSH1 0x1 PUSH1 0x9 PUSH1 0x0 DUP8 DUP2 MSTORE PUSH1 0x20 ADD SWAP1 DUP2 MSTORE PUSH1 0x20 ADD PUSH1 0x0 KECCAK256 SLOAD PUSH2 0xD52 SWAP2 SWAP1 PUSH2 0x24A8 JUMP JUMPDEST PUSH1 0x9 PUSH1 0x0 DUP8 DUP2 MSTORE PUSH1 0x20 ADD SWAP1 DUP2 MSTORE PUSH1 0x20 ADD PUSH1 0x0 KECCAK256 DUP2 SWAP1 SSTORE POP CALLER PUSH20 0xFFFFFFFFFFFFFFFFFFFFFFFFFFFFFFFFFFFFFFFF AND DUP2 PUSH1 0x0 ADD MLOAD PUSH32 0x23EE0FA364202253CC921CCC2875F3262C31B5D3A2319A97FE04AFAD6D83B0AE DUP8 DUP8 PUSH1 0x40 MLOAD PUSH2 0xDB6 SWAP3 SWAP2 SWAP1 PUSH2 0x24DC JUMP JUMPDEST PUSH1 0x40 MLOAD DUP1 SWAP2 SUB SWAP1 LOG3 POP POP POP POP POP JUMP JUMPDEST PUSH1 0x9 PUSH1 0x20 MSTORE DUP1 PUSH1 0x0 MSTORE PUSH1 0x40 PUSH1 0x0 KECCAK256 PUSH1 0x0 SWAP2 POP SWAP1 POP SLOAD DUP2 JUMP JUMPDEST PUSH1 0x4 PUSH1 0x20 MSTORE DUP1 PUSH1 0x0 MSTORE PUSH1 0x40 PUSH1 0x0 KECCAK256 PUSH1 0x0 SWAP2 POP SLOAD SWAP1 PUSH2 0x100 EXP SWAP1 DIV PUSH1 0xFF AND DUP2 JUMP JUMPDEST PUSH1 0x8 PUSH1 0x20 MSTORE DUP1 PUSH1 0x0 MSTORE PUSH1 0x40 PUSH1 0x0 KECCAK256 PUSH1 0x0 SWAP2 POP SWAP1 POP DUP1 PUSH1 0x0 ADD SLOAD SWAP1 DUP1 PUSH1 0x1 ADD PUSH1 0x0 SWAP1 SLOAD SWAP1 PUSH2 0x100 EXP SWAP1 DIV PUSH20 0xFFFFFFFFFFFFFFFFFFFFFFFFFFFFFFFFFFFFFFFF AND SWAP1 DUP1 PUSH1 0x2 ADD SLOAD SWAP1 DUP1 PUSH1 0x3 ADD SLOAD SWAP1 DUP1 PUSH1 0x4 ADD SLOAD SWAP1 DUP1 PUSH1 0x5 ADD SLOAD SWAP1 DUP1 PUSH1 0x6 ADD SLOAD SWAP1 DUP1 PUSH1 0x7 ADD SLOAD SWAP1 DUP1 PUSH1 0x8 ADD PUSH1 0x0 SWAP1 SLOAD SWAP1 PUSH2 0x100 EXP SWAP1 DIV PUSH1 0xFF AND SWAP1 POP DUP10 JUMP JUMPDEST PUSH1 0x0 PUSH2 0xE83 DUP5 PUSH2 0x15F3 JUMP JUMPDEST SWAP1 POP PUSH1 0x4 PUSH1 0x0 DUP6 DUP2 MSTORE PUSH1 0x20 ADD SWAP1 DUP2 MSTORE PUSH1 0x20 ADD PUSH1 0x0 KECCAK256 PUSH1 0x0 SWAP1 SLOAD SWAP1 PUSH2 0x100 EXP SWAP1 DIV PUSH1 0xFF AND ISZERO PUSH2 0xEE6 JUMPI PUSH1 0x40 MLOAD PUSH32 0x8C379A000000000000000000000000000000000000000000000000000000000 DUP2 MSTORE PUSH1 0x4 ADD PUSH2 0xEDD SWAP1 PUSH2 0x2551 JUMP JUMPDEST PUSH1 0x40 MLOAD DUP1 SWAP2 SUB SWAP1 REVERT JUMPDEST DUP1 PUSH1 0xC0 ADD MLOAD DUP4 DUP4 SWAP1 POP GT ISZERO PUSH2 0xF30 JUMPI PUSH1 0x40 MLOAD PUSH32 0x8C379A000000000000000000000000000000000000000000000000000000000 DUP2 MSTORE PUSH1 0x4 ADD PUSH2 0xF27 SWAP1 PUSH2 0x25E3 JUMP JUMPDEST PUSH1 0x40 MLOAD DUP1 SWAP2 SUB SWAP1 REVERT JUMPDEST TIMESTAMP DUP2 PUSH1 0xE0 ADD MLOAD LT PUSH2 0xF76 JUMPI PUSH1 0x40 MLOAD PUSH32 0x8C379A000000000000000000000000000000000000000000000000000000000 DUP2 MSTORE PUSH1 0x4 ADD PUSH2 0xF6D SWAP1 PUSH2 0x2675 JUMP JUMPDEST PUSH1 0x40 MLOAD DUP1 SWAP2 SUB SWAP1 REVERT JUMPDEST PUSH2 0xF80 DUP5 CALLER PUSH2 0x158B JUMP JUMPDEST PUSH2 0xFBF JUMPI PUSH1 0x40 MLOAD PUSH32 0x8C379A000000000000000000000000000000000000000000000000000000000 DUP2 MSTORE PUSH1 0x4 ADD PUSH2 0xFB6 SWAP1 PUSH2 0x26E1 JUMP JUMPDEST PUSH1 0x40 MLOAD DUP1 SWAP2 SUB SWAP1 REVERT JUMPDEST PUSH1 0x1 PUSH1 0x4 PUSH1 0x0 DUP7 DUP2 MSTORE PUSH1 0x20 ADD SWAP1 DUP2 MSTORE PUSH1 0x20 ADD PUSH1 0x0 KECCAK256 PUSH1 0x0 PUSH2 0x100 EXP DUP2 SLOAD DUP2 PUSH1 0xFF MUL NOT AND SWAP1 DUP4 ISZERO ISZERO MUL OR SWAP1 SSTORE POP PUSH1 0x1 DUP2 PUSH2 0x100 ADD SWAP1 ISZERO ISZERO SWAP1 DUP2 ISZERO ISZERO DUP2 MSTORE POP POP PUSH1 0x0 DUP4 DUP4 SWAP1 POP SWAP1 POP PUSH1 0x0 DUP3 PUSH1 0x80 ADD MLOAD SWAP1 POP PUSH1 0x0 DUP4 PUSH1 0xC0 ADD MLOAD SWAP1 POP PUSH1 0x0 DUP4 EQ DUP1 PUSH2 0x1025 JUMPI POP DUP1 DUP4 EQ JUMPDEST ISZERO PUSH2 0x1158 JUMPI PUSH1 0x0 JUMPDEST DUP2 DUP2 LT ISZERO PUSH2 0x1152 JUMPI PUSH1 0x0 PUSH1 0x5 PUSH1 0x0 DUP11 DUP2 MSTORE PUSH1 0x20 ADD SWAP1 DUP2 MSTORE PUSH1 0x20 ADD PUSH1 0x0 KECCAK256 DUP3 DUP2 SLOAD DUP2 LT PUSH2 0x105C JUMPI PUSH2 0x105B PUSH2 0x2701 JUMP JUMPDEST JUMPDEST SWAP1 PUSH1 0x0 MSTORE PUSH1 0x20 PUSH1 0x0 KECCAK256 ADD PUSH1 0x0 SWAP1 SLOAD SWAP1 PUSH2 0x100 EXP SWAP1 DIV PUSH20 0xFFFFFFFFFFFFFFFFFFFFFFFFFFFFFFFFFFFFFFFF AND SWAP1 POP PUSH1 0x0 DUP1 DUP3 PUSH20 0xFFFFFFFFFFFFFFFFFFFFFFFFFFFFFFFFFFFFFFFF AND DUP6 DUP8 PUSH2 0x10AF SWAP2 SWAP1 PUSH2 0x275F JUMP JUMPDEST PUSH1 0x40 MLOAD PUSH2 0x10BB SWAP1 PUSH2 0x27C1 JUMP JUMPDEST PUSH1 0x0 PUSH1 0x40 MLOAD DUP1 DUP4 SUB DUP2 DUP6 DUP8 GAS CALL SWAP3 POP POP POP RETURNDATASIZE DUP1 PUSH1 0x0 DUP2 EQ PUSH2 0x10F8 JUMPI PUSH1 0x40 MLOAD SWAP2 POP PUSH1 0x1F NOT PUSH1 0x3F RETURNDATASIZE ADD AND DUP3 ADD PUSH1 0x40 MSTORE RETURNDATASIZE DUP3 MSTORE RETURNDATASIZE PUSH1 0x0 PUSH1 0x20 DUP5 ADD RETURNDATACOPY PUSH2 0x10FD JUMP JUMPDEST PUSH1 0x60 SWAP2 POP JUMPDEST POP SWAP2 POP SWAP2 POP DUP2 PUSH2 0x1142 JUMPI PUSH1 0x40 MLOAD PUSH32 0x8C379A000000000000000000000000000000000000000000000000000000000 DUP2 MSTORE PUSH1 0x4 ADD PUSH2 0x1139 SWAP1 PUSH2 0x2822 JUMP JUMPDEST PUSH1 0x40 MLOAD DUP1 SWAP2 SUB SWAP1 REVERT JUMPDEST POP POP POP DUP1 DUP1 PUSH1 0x1 ADD SWAP2 POP POP PUSH2 0x102D JUMP JUMPDEST POP PUSH2 0x1344 JUMP JUMPDEST PUSH1 0x0 DUP4 DUP4 PUSH2 0x1166 SWAP2 SWAP1 PUSH2 0x275F JUMP JUMPDEST SWAP1 POP PUSH1 0x0 JUMPDEST DUP5 DUP2 LT ISZERO PUSH2 0x1341 JUMPI PUSH2 0x11A4 DUP10 DUP10 DUP10 DUP5 DUP2 DUP2 LT PUSH2 0x118A JUMPI PUSH2 0x1189 PUSH2 0x2701 JUMP JUMPDEST JUMPDEST SWAP1 POP PUSH1 0x20 MUL ADD PUSH1 0x20 DUP2 ADD SWAP1 PUSH2 0x119F SWAP2 SWAP1 PUSH2 0x1FB8 JUMP JUMPDEST PUSH2 0x158B JUMP JUMPDEST PUSH2 0x11E3 JUMPI PUSH1 0x40 MLOAD PUSH32 0x8C379A000000000000000000000000000000000000000000000000000000000 DUP2 MSTORE PUSH1 0x4 ADD PUSH2 0x11DA SWAP1 PUSH2 0x26E1 JUMP JUMPDEST PUSH1 0x40 MLOAD DUP1 SWAP2 SUB SWAP1 REVERT JUMPDEST PUSH1 0x0 DUP9 DUP9 DUP4 DUP2 DUP2 LT PUSH2 0x11F8 JUMPI PUSH2 0x11F7 PUSH2 0x2701 JUMP JUMPDEST JUMPDEST SWAP1 POP PUSH1 0x20 MUL ADD PUSH1 0x20 DUP2 ADD SWAP1 PUSH2 0x120D SWAP2 SWAP1 PUSH2 0x1FB8 JUMP JUMPDEST SWAP1 POP PUSH1 0x0 DUP1 DUP3 PUSH20 0xFFFFFFFFFFFFFFFFFFFFFFFFFFFFFFFFFFFFFFFF AND DUP6 PUSH1 0x40 MLOAD PUSH2 0x1236 SWAP1 PUSH2 0x27C1 JUMP JUMPDEST PUSH1 0x0 PUSH1 0x40 MLOAD DUP1 DUP4 SUB DUP2 DUP6 DUP8 GAS CALL SWAP3 POP POP POP RETURNDATASIZE DUP1 PUSH1 0x0 DUP2 EQ PUSH2 0x1273 JUMPI PUSH1 0x40 MLOAD SWAP2 POP PUSH1 0x1F NOT PUSH1 0x3F RETURNDATASIZE ADD AND DUP3 ADD PUSH1 0x40 MSTORE RETURNDATASIZE DUP3 MSTORE RETURNDATASIZE PUSH1 0x0 PUSH1 0x20 DUP5 ADD RETURNDATACOPY PUSH2 0x1278 JUMP JUMPDEST PUSH1 0x60 SWAP2 POP JUMPDEST POP SWAP2 POP SWAP2 POP DUP2 PUSH2 0x12BD JUMPI PUSH1 0x40 MLOAD PUSH32 0x8C379A000000000000000000000000000000000000000000000000000000000 DUP2 MSTORE PUSH1 0x4 ADD PUSH2 0x12B4 SWAP1 PUSH2 0x2822 JUMP JUMPDEST PUSH1 0x40 MLOAD DUP1 SWAP2 SUB SWAP1 REVERT JUMPDEST PUSH1 0x7 PUSH1 0x0 DUP14 DUP2 MSTORE PUSH1 0x20 ADD SWAP1 DUP2 MSTORE PUSH1 0x20 ADD PUSH1 0x0 KECCAK256 DUP4 SWAP1 DUP1 PUSH1 0x1 DUP2 SLOAD ADD DUP1 DUP3 SSTORE DUP1 SWAP2 POP POP PUSH1 0x1 SWAP1 SUB SWAP1 PUSH1 0x0 MSTORE PUSH1 0x20 PUSH1 0x0 KECCAK256 ADD PUSH1 0x0 SWAP1 SWAP2 SWAP1 SWAP2 SWAP1 SWAP2 PUSH2 0x100 EXP DUP2 SLOAD DUP2 PUSH20 0xFFFFFFFFFFFFFFFFFFFFFFFFFFFFFFFFFFFFFFFF MUL NOT AND SWAP1 DUP4 PUSH20 0xFFFFFFFFFFFFFFFFFFFFFFFFFFFFFFFFFFFFFFFF AND MUL OR SWAP1 SSTORE POP POP POP POP DUP1 DUP1 PUSH1 0x1 ADD SWAP2 POP POP PUSH2 0x116B JUMP JUMPDEST POP POP JUMPDEST DUP7 PUSH32 0x33E594F82663811673BBE01E06F46080CB6B7AC55B9B8FECEC4F59EA32C690C1 DUP8 DUP8 PUSH1 0x40 MLOAD PUSH2 0x1376 SWAP3 SWAP2 SWAP1 PUSH2 0x28CD JUMP JUMPDEST PUSH1 0x40 MLOAD DUP1 SWAP2 SUB SWAP1 LOG2 POP POP POP POP POP POP POP JUMP JUMPDEST PUSH1 0x0 PUSH2 0x1392 DUP3 PUSH2 0x15F3 JUMP JUMPDEST SWAP1 POP CALLER PUSH20 0xFFFFFFFFFFFFFFFFFFFFFFFFFFFFFFFFFFFFFFFF AND DUP2 PUSH1 0x20 ADD MLOAD PUSH20 0xFFFFFFFFFFFFFFFFFFFFFFFFFFFFFFFFFFFFFFFF AND EQ PUSH2 0x1406 JUMPI PUSH1 0x40 MLOAD PUSH32 0x8C379A000000000000000000000000000000000000000000000000000000000 DUP2 MSTORE PUSH1 0x4 ADD PUSH2 0x13FD SWAP1 PUSH2 0x2963 JUMP JUMPDEST PUSH1 0x40 MLOAD DUP1 SWAP2 SUB SWAP1 REVERT JUMPDEST PUSH1 0x2 DUP2 PUSH1 0xC0 ADD MLOAD LT PUSH2 0x144D JUMPI PUSH1 0x40 MLOAD PUSH32 0x8C379A000000000000000000000000000000000000000000000000000000000 DUP2 MSTORE PUSH1 0x4 ADD PUSH2 0x1444 SWAP1 PUSH2 0x29CF JUMP JUMPDEST PUSH1 0x40 MLOAD DUP1 SWAP2 SUB SWAP1 REVERT JUMPDEST PUSH1 0x0 DUP2 PUSH1 0x20 ADD MLOAD SWAP1 POP PUSH1 0x0 DUP3 PUSH1 0x60 ADD MLOAD SWAP1 POP PUSH1 0x1 DUP4 PUSH2 0x100 ADD SWAP1 ISZERO ISZERO SWAP1 DUP2 ISZERO ISZERO DUP2 MSTORE POP POP PUSH1 0x1 PUSH1 0x4 PUSH1 0x0 DUP7 DUP2 MSTORE PUSH1 0x20 ADD SWAP1 DUP2 MSTORE PUSH1 0x20 ADD PUSH1 0x0 KECCAK256 PUSH1 0x0 PUSH2 0x100 EXP DUP2 SLOAD DUP2 PUSH1 0xFF MUL NOT AND SWAP1 DUP4 ISZERO ISZERO MUL OR SWAP1 SSTORE POP PUSH1 0x0 DUP1 DUP4 PUSH20 0xFFFFFFFFFFFFFFFFFFFFFFFFFFFFFFFFFFFFFFFF AND DUP4 PUSH1 0x40 MLOAD PUSH2 0x14C4 SWAP1 PUSH2 0x27C1 JUMP JUMPDEST PUSH1 0x0 PUSH1 0x40 MLOAD DUP1 DUP4 SUB DUP2 DUP6 DUP8 GAS CALL SWAP3 POP POP POP RETURNDATASIZE DUP1 PUSH1 0x0 DUP2 EQ PUSH2 0x1501 JUMPI PUSH1 0x40 MLOAD SWAP2 POP PUSH1 0x1F NOT PUSH1 0x3F RETURNDATASIZE ADD AND DUP3 ADD PUSH1 0x40 MSTORE RETURNDATASIZE DUP3 MSTORE RETURNDATASIZE PUSH1 0x0 PUSH1 0x20 DUP5 ADD RETURNDATACOPY PUSH2 0x1506 JUMP JUMPDEST PUSH1 0x60 SWAP2 POP JUMPDEST POP SWAP2 POP SWAP2 POP DUP2 PUSH2 0x154B JUMPI PUSH1 0x40 MLOAD PUSH32 0x8C379A000000000000000000000000000000000000000000000000000000000 DUP2 MSTORE PUSH1 0x4 ADD PUSH2 0x1542 SWAP1 PUSH2 0x2822 JUMP JUMPDEST PUSH1 0x40 MLOAD DUP1 SWAP2 SUB SWAP1 REVERT JUMPDEST DUP6 PUSH32 0x6815D124B1B2881113F47CEEEED99D35EB0591ABA9C53AE03D47FECB83A5ADE1 CALLER PUSH1 0x40 MLOAD PUSH2 0x157B SWAP2 SWAP1 PUSH2 0x1F1D JUMP JUMPDEST PUSH1 0x40 MLOAD DUP1 SWAP2 SUB SWAP1 LOG2 POP POP POP POP POP POP JUMP JUMPDEST PUSH1 0x0 PUSH1 0x6 PUSH1 0x0 DUP5 DUP2 MSTORE PUSH1 0x20 ADD SWAP1 DUP2 MSTORE PUSH1 0x20 ADD PUSH1 0x0 KECCAK256 PUSH1 0x0 DUP4 PUSH20 0xFFFFFFFFFFFFFFFFFFFFFFFFFFFFFFFFFFFFFFFF AND PUSH20 0xFFFFFFFFFFFFFFFFFFFFFFFFFFFFFFFFFFFFFFFF AND DUP2 MSTORE PUSH1 0x20 ADD SWAP1 DUP2 MSTORE PUSH1 0x20 ADD PUSH1 0x0 KECCAK256 PUSH1 0x0 SWAP1 SLOAD SWAP1 PUSH2 0x100 EXP SWAP1 DIV PUSH1 0xFF AND SWAP1 POP SWAP3 SWAP2 POP POP JUMP JUMPDEST PUSH2 0x15FB PUSH2 0x19B5 JUMP JUMPDEST PUSH1 0x8 PUSH1 0x0 DUP4 DUP2 MSTORE PUSH1 0x20 ADD SWAP1 DUP2 MSTORE PUSH1 0x20 ADD PUSH1 0x0 KECCAK256 PUSH1 0x40 MLOAD DUP1 PUSH2 0x120 ADD PUSH1 0x40 MSTORE SWAP1 DUP2 PUSH1 0x0 DUP3 ADD SLOAD DUP2 MSTORE PUSH1 0x20 ADD PUSH1 0x1 DUP3 ADD PUSH1 0x0 SWAP1 SLOAD SWAP1 PUSH2 0x100 EXP SWAP1 DIV PUSH20 0xFFFFFFFFFFFFFFFFFFFFFFFFFFFFFFFFFFFFFFFF AND PUSH20 0xFFFFFFFFFFFFFFFFFFFFFFFFFFFFFFFFFFFFFFFF AND PUSH20 0xFFFFFFFFFFFFFFFFFFFFFFFFFFFFFFFFFFFFFFFF AND DUP2 MSTORE PUSH1 0x20 ADD PUSH1 0x2 DUP3 ADD SLOAD DUP2 MSTORE PUSH1 0x20 ADD PUSH1 0x3 DUP3 ADD SLOAD DUP2 MSTORE PUSH1 0x20 ADD PUSH1 0x4 DUP3 ADD SLOAD DUP2 MSTORE PUSH1 0x20 ADD PUSH1 0x5 DUP3 ADD SLOAD DUP2 MSTORE PUSH1 0x20 ADD PUSH1 0x6 DUP3 ADD SLOAD DUP2 MSTORE PUSH1 0x20 ADD PUSH1 0x7 DUP3 ADD SLOAD DUP2 MSTORE PUSH1 0x20 ADD PUSH1 0x8 DUP3 ADD PUSH1 0x0 SWAP1 SLOAD SWAP1 PUSH2 0x100 EXP SWAP1 DIV PUSH1 0xFF AND ISZERO ISZERO ISZERO ISZERO DUP2 MSTORE POP POP SWAP1 POP SWAP2 SWAP1 POP JUMP JUMPDEST PUSH1 0x0 PUSH1 0xA PUSH1 0x0 DUP5 DUP2 MSTORE PUSH1 0x20 ADD SWAP1 DUP2 MSTORE PUSH1 0x20 ADD PUSH1 0x0 KECCAK256 PUSH1 0x0 DUP4 PUSH20 0xFFFFFFFFFFFFFFFFFFFFFFFFFFFFFFFFFFFFFFFF AND PUSH20 0xFFFFFFFFFFFFFFFFFFFFFFFFFFFFFFFFFFFFFFFF AND DUP2 MSTORE PUSH1 0x20 ADD SWAP1 DUP2 MSTORE PUSH1 0x20 ADD PUSH1 0x0 KECCAK256 PUSH1 0x0 SWAP1 SLOAD SWAP1 PUSH2 0x100 EXP SWAP1 DIV PUSH1 0xFF AND SWAP1 POP SWAP3 SWAP2 POP POP JUMP JUMPDEST PUSH1 0x1 PUSH1 0x0 SWAP1 SLOAD SWAP1 PUSH2 0x100 EXP SWAP1 DIV PUSH20 0xFFFFFFFFFFFFFFFFFFFFFFFFFFFFFFFFFFFFFFFF AND DUP2 JUMP JUMPDEST PUSH1 0x7 PUSH1 0x20 MSTORE DUP2 PUSH1 0x0 MSTORE PUSH1 0x40 PUSH1 0x0 KECCAK256 DUP2 DUP2 SLOAD DUP2 LT PUSH2 0x1782 JUMPI PUSH1 0x0 DUP1 REVERT JUMPDEST SWAP1 PUSH1 0x0 MSTORE PUSH1 0x20 PUSH1 0x0 KECCAK256 ADD PUSH1 0x0 SWAP2 POP SWAP2 POP SWAP1 SLOAD SWAP1 PUSH2 0x100 EXP SWAP1 DIV PUSH20 0xFFFFFFFFFFFFFFFFFFFFFFFFFFFFFFFFFFFFFFFF AND DUP2 JUMP JUMPDEST PUSH1 0x0 PUSH1 0x9 PUSH1 0x0 DUP4 DUP2 MSTORE PUSH1 0x20 ADD SWAP1 DUP2 MSTORE PUSH1 0x20 ADD PUSH1 0x0 KECCAK256 SLOAD SWAP1 POP SWAP2 SWAP1 POP JUMP JUMPDEST PUSH1 0x5 PUSH1 0x20 MSTORE DUP2 PUSH1 0x0 MSTORE PUSH1 0x40 PUSH1 0x0 KECCAK256 DUP2 DUP2 SLOAD DUP2 LT PUSH2 0x17ED JUMPI PUSH1 0x0 DUP1 REVERT JUMPDEST SWAP1 PUSH1 0x0 MSTORE PUSH1 0x20 PUSH1 0x0 KECCAK256 ADD PUSH1 0x0 SWAP2 POP SWAP2 POP SWAP1 SLOAD SWAP1 PUSH2 0x100 EXP SWAP1 DIV PUSH20 0xFFFFFFFFFFFFFFFFFFFFFFFFFFFFFFFFFFFFFFFF AND DUP2 JUMP JUMPDEST PUSH1 0x3 PUSH1 0x20 MSTORE DUP2 PUSH1 0x0 MSTORE PUSH1 0x40 PUSH1 0x0 KECCAK256 DUP2 DUP2 SLOAD DUP2 LT PUSH2 0x183B JUMPI PUSH1 0x0 DUP1 REVERT JUMPDEST SWAP1 PUSH1 0x0 MSTORE PUSH1 0x20 PUSH1 0x0 KECCAK256 ADD PUSH1 0x0 SWAP2 POP SWAP2 POP POP SLOAD DUP2 JUMP JUMPDEST PUSH1 0x0 SLOAD DUP2 JUMP JUMPDEST PUSH1 0x60 PUSH1 0x3 PUSH1 0x0 DUP4 PUSH20 0xFFFFFFFFFFFFFFFFFFFFFFFFFFFFFFFFFFFFFFFF AND PUSH20 0xFFFFFFFFFFFFFFFFFFFFFFFFFFFFFFFFFFFFFFFF AND DUP2 MSTORE PUSH1 0x20 ADD SWAP1 DUP2 MSTORE PUSH1 0x20 ADD PUSH1 0x0 KECCAK256 DUP1 SLOAD DUP1 PUSH1 0x20 MUL PUSH1 0x20 ADD PUSH1 0x40 MLOAD SWAP1 DUP2 ADD PUSH1 0x40 MSTORE DUP1 SWAP3 SWAP2 SWAP1 DUP2 DUP2 MSTORE PUSH1 0x20 ADD DUP3 DUP1 SLOAD DUP1 ISZERO PUSH2 0x18E1 JUMPI PUSH1 0x20 MUL DUP3 ADD SWAP2 SWAP1 PUSH1 0x0 MSTORE PUSH1 0x20 PUSH1 0x0 KECCAK256 SWAP1 JUMPDEST DUP2 SLOAD DUP2 MSTORE PUSH1 0x20 ADD SWAP1 PUSH1 0x1 ADD SWAP1 DUP1 DUP4 GT PUSH2 0x18CD JUMPI JUMPDEST POP POP POP POP POP SWAP1 POP SWAP2 SWAP1 POP JUMP JUMPDEST PUSH1 0x2 PUSH1 0x20 MSTORE DUP1 PUSH1 0x0 MSTORE PUSH1 0x40 PUSH1 0x0 KECCAK256 PUSH1 0x0 SWAP2 POP SLOAD SWAP1 PUSH2 0x100 EXP SWAP1 DIV PUSH20 0xFFFFFFFFFFFFFFFFFFFFFFFFFFFFFFFFFFFFFFFF AND DUP2 JUMP JUMPDEST PUSH1 0x1 PUSH1 0x8 PUSH1 0x0 DUP4 DUP2 MSTORE PUSH1 0x20 ADD SWAP1 DUP2 MSTORE PUSH1 0x20 ADD PUSH1 0x0 KECCAK256 PUSH1 0x6 ADD SLOAD PUSH2 0x1943 SWAP2 SWAP1 PUSH2 0x24A8 JUMP JUMPDEST PUSH1 0x8 PUSH1 0x0 DUP4 DUP2 MSTORE PUSH1 0x20 ADD SWAP1 DUP2 MSTORE PUSH1 0x20 ADD PUSH1 0x0 KECCAK256 PUSH1 0x6 ADD DUP2 SWAP1 SSTORE POP POP JUMP JUMPDEST PUSH1 0x8 PUSH1 0x0 DUP3 DUP2 MSTORE PUSH1 0x20 ADD SWAP1 DUP2 MSTORE PUSH1 0x20 ADD PUSH1 0x0 KECCAK256 PUSH1 0x3 ADD SLOAD PUSH1 0x8 PUSH1 0x0 DUP4 DUP2 MSTORE PUSH1 0x20 ADD SWAP1 DUP2 MSTORE PUSH1 0x20 ADD PUSH1 0x0 KECCAK256 PUSH1 0x4 ADD SLOAD PUSH2 0x1998 SWAP2 SWAP1 PUSH2 0x24A8 JUMP JUMPDEST PUSH1 0x8 PUSH1 0x0 DUP4 DUP2 MSTORE PUSH1 0x20 ADD SWAP1 DUP2 MSTORE PUSH1 0x20 ADD PUSH1 0x0 KECCAK256 PUSH1 0x4 ADD DUP2 SWAP1 SSTORE POP POP JUMP JUMPDEST PUSH1 0x40 MLOAD DUP1 PUSH2 0x120 ADD PUSH1 0x40 MSTORE DUP1 PUSH1 0x0 DUP2 MSTORE PUSH1 0x20 ADD PUSH1 0x0 PUSH20 0xFFFFFFFFFFFFFFFFFFFFFFFFFFFFFFFFFFFFFFFF AND DUP2 MSTORE PUSH1 0x20 ADD PUSH1 0x0 DUP2 MSTORE PUSH1 0x20 ADD PUSH1 0x0 DUP2 MSTORE PUSH1 0x20 ADD PUSH1 0x0 DUP2 MSTORE PUSH1 0x20 ADD PUSH1 0x0 DUP2 MSTORE PUSH1 0x20 ADD PUSH1 0x0 DUP2 MSTORE PUSH1 0x20 ADD PUSH1 0x0 DUP2 MSTORE PUSH1 0x20 ADD PUSH1 0x0 ISZERO ISZERO DUP2 MSTORE POP SWAP1 JUMP JUMPDEST PUSH1 0x0 DUP1 REVERT JUMPDEST PUSH1 0x0 DUP1 REVERT JUMPDEST PUSH1 0x0 DUP2 SWAP1 POP SWAP2 SWAP1 POP JUMP JUMPDEST PUSH2 0x1A36 DUP2 PUSH2 0x1A23 JUMP JUMPDEST DUP2 EQ PUSH2 0x1A41 JUMPI PUSH1 0x0 DUP1 REVERT JUMPDEST POP JUMP JUMPDEST PUSH1 0x0 DUP2 CALLDATALOAD SWAP1 POP PUSH2 0x1A53 DUP2 PUSH2 0x1A2D JUMP JUMPDEST SWAP3 SWAP2 POP POP JUMP JUMPDEST PUSH1 0x0 PUSH1 0x20 DUP3 DUP5 SUB SLT ISZERO PUSH2 0x1A6F JUMPI PUSH2 0x1A6E PUSH2 0x1A19 JUMP JUMPDEST JUMPDEST PUSH1 0x0 PUSH2 0x1A7D DUP5 DUP3 DUP6 ADD PUSH2 0x1A44 JUMP JUMPDEST SWAP2 POP POP SWAP3 SWAP2 POP POP JUMP JUMPDEST PUSH1 0x0 DUP2 MLOAD SWAP1 POP SWAP2 SWAP1 POP JUMP JUMPDEST PUSH1 0x0 DUP3 DUP3 MSTORE PUSH1 0x20 DUP3 ADD SWAP1 POP SWAP3 SWAP2 POP POP JUMP JUMPDEST PUSH1 0x0 DUP2 SWAP1 POP PUSH1 0x20 DUP3 ADD SWAP1 POP SWAP2 SWAP1 POP JUMP JUMPDEST PUSH1 0x0 PUSH20 0xFFFFFFFFFFFFFFFFFFFFFFFFFFFFFFFFFFFFFFFF DUP3 AND SWAP1 POP SWAP2 SWAP1 POP JUMP JUMPDEST PUSH1 0x0 PUSH2 0x1ADD DUP3 PUSH2 0x1AB2 JUMP JUMPDEST SWAP1 POP SWAP2 SWAP1 POP JUMP JUMPDEST PUSH2 0x1AED DUP2 PUSH2 0x1AD2 JUMP JUMPDEST DUP3 MSTORE POP POP JUMP JUMPDEST PUSH1 0x0 PUSH2 0x1AFF DUP4 DUP4 PUSH2 0x1AE4 JUMP JUMPDEST PUSH1 0x20 DUP4 ADD SWAP1 POP SWAP3 SWAP2 POP POP JUMP JUMPDEST PUSH1 0x0 PUSH1 0x20 DUP3 ADD SWAP1 POP SWAP2 SWAP1 POP JUMP JUMPDEST PUSH1 0x0 PUSH2 0x1B23 DUP3 PUSH2 0x1A86 JUMP JUMPDEST PUSH2 0x1B2D DUP2 DUP6 PUSH2 0x1A91 JUMP JUMPDEST SWAP4 POP PUSH2 0x1B38 DUP4 PUSH2 0x1AA2 JUMP JUMPDEST DUP1 PUSH1 0x0 JUMPDEST DUP4 DUP2 LT ISZERO PUSH2 0x1B69 JUMPI DUP2 MLOAD PUSH2 0x1B50 DUP9 DUP3 PUSH2 0x1AF3 JUMP JUMPDEST SWAP8 POP PUSH2 0x1B5B DUP4 PUSH2 0x1B0B JUMP JUMPDEST SWAP3 POP POP PUSH1 0x1 DUP2 ADD SWAP1 POP PUSH2 0x1B3C JUMP JUMPDEST POP DUP6 SWAP4 POP POP POP POP SWAP3 SWAP2 POP POP JUMP JUMPDEST PUSH1 0x0 PUSH1 0x20 DUP3 ADD SWAP1 POP DUP2 DUP2 SUB PUSH1 0x0 DUP4 ADD MSTORE PUSH2 0x1B90 DUP2 DUP5 PUSH2 0x1B18 JUMP JUMPDEST SWAP1 POP SWAP3 SWAP2 POP POP JUMP JUMPDEST PUSH1 0x0 DUP1 PUSH1 0x0 DUP1 PUSH1 0x80 DUP6 DUP8 SUB SLT ISZERO PUSH2 0x1BB2 JUMPI PUSH2 0x1BB1 PUSH2 0x1A19 JUMP JUMPDEST JUMPDEST PUSH1 0x0 PUSH2 0x1BC0 DUP8 DUP3 DUP9 ADD PUSH2 0x1A44 JUMP JUMPDEST SWAP5 POP POP PUSH1 0x20 PUSH2 0x1BD1 DUP8 DUP3 DUP9 ADD PUSH2 0x1A44 JUMP JUMPDEST SWAP4 POP POP PUSH1 0x40 PUSH2 0x1BE2 DUP8 DUP3 DUP9 ADD PUSH2 0x1A44 JUMP JUMPDEST SWAP3 POP POP PUSH1 0x60 PUSH2 0x1BF3 DUP8 DUP3 DUP9 ADD PUSH2 0x1A44 JUMP JUMPDEST SWAP2 POP POP SWAP3 SWAP6 SWAP2 SWAP5 POP SWAP3 POP JUMP JUMPDEST PUSH2 0x1C08 DUP2 PUSH2 0x1A23 JUMP JUMPDEST DUP3 MSTORE POP POP JUMP JUMPDEST PUSH1 0x0 PUSH1 0x20 DUP3 ADD SWAP1 POP PUSH2 0x1C23 PUSH1 0x0 DUP4 ADD DUP5 PUSH2 0x1BFF JUMP JUMPDEST SWAP3 SWAP2 POP POP JUMP JUMPDEST PUSH1 0x0 DUP2 ISZERO ISZERO SWAP1 POP SWAP2 SWAP1 POP JUMP JUMPDEST PUSH2 0x1C3E DUP2 PUSH2 0x1C29 JUMP JUMPDEST DUP3 MSTORE POP POP JUMP JUMPDEST PUSH1 0x0 PUSH1 0x20 DUP3 ADD SWAP1 POP PUSH2 0x1C59 PUSH1 0x0 DUP4 ADD DUP5 PUSH2 0x1C35 JUMP JUMPDEST SWAP3 SWAP2 POP POP JUMP JUMPDEST PUSH2 0x1C68 DUP2 PUSH2 0x1AD2 JUMP JUMPDEST DUP3 MSTORE POP POP JUMP JUMPDEST PUSH1 0x0 PUSH2 0x120 DUP3 ADD SWAP1 POP PUSH2 0x1C84 PUSH1 0x0 DUP4 ADD DUP13 PUSH2 0x1BFF JUMP JUMPDEST PUSH2 0x1C91 PUSH1 0x20 DUP4 ADD DUP12 PUSH2 0x1C5F JUMP JUMPDEST PUSH2 0x1C9E PUSH1 0x40 DUP4 ADD DUP11 PUSH2 0x1BFF JUMP JUMPDEST PUSH2 0x1CAB PUSH1 0x60 DUP4 ADD DUP10 PUSH2 0x1BFF JUMP JUMPDEST PUSH2 0x1CB8 PUSH1 0x80 DUP4 ADD DUP9 PUSH2 0x1BFF JUMP JUMPDEST PUSH2 0x1CC5 PUSH1 0xA0 DUP4 ADD DUP8 PUSH2 0x1BFF JUMP JUMPDEST PUSH2 0x1CD2 PUSH1 0xC0 DUP4 ADD DUP7 PUSH2 0x1BFF JUMP JUMPDEST PUSH2 0x1CDF PUSH1 0xE0 DUP4 ADD DUP6 PUSH2 0x1BFF JUMP JUMPDEST PUSH2 0x1CED PUSH2 0x100 DUP4 ADD DUP5 PUSH2 0x1C35 JUMP JUMPDEST SWAP11 SWAP10 POP POP POP POP POP POP POP POP POP POP JUMP JUMPDEST PUSH1 0x0 DUP1 REVERT JUMPDEST PUSH1 0x0 DUP1 REVERT JUMPDEST PUSH1 0x0 DUP1 REVERT JUMPDEST PUSH1 0x0 DUP1 DUP4 PUSH1 0x1F DUP5 ADD SLT PUSH2 0x1D20 JUMPI PUSH2 0x1D1F PUSH2 0x1CFB JUMP JUMPDEST JUMPDEST DUP3 CALLDATALOAD SWAP1 POP PUSH8 0xFFFFFFFFFFFFFFFF DUP2 GT ISZERO PUSH2 0x1D3D JUMPI PUSH2 0x1D3C PUSH2 0x1D00 JUMP JUMPDEST JUMPDEST PUSH1 0x20 DUP4 ADD SWAP2 POP DUP4 PUSH1 0x20 DUP3 MUL DUP4 ADD GT ISZERO PUSH2 0x1D59 JUMPI PUSH2 0x1D58 PUSH2 0x1D05 JUMP JUMPDEST JUMPDEST SWAP3 POP SWAP3 SWAP1 POP JUMP JUMPDEST PUSH1 0x0 DUP1 PUSH1 0x0 PUSH1 0x40 DUP5 DUP7 SUB SLT ISZERO PUSH2 0x1D79 JUMPI PUSH2 0x1D78 PUSH2 0x1A19 JUMP JUMPDEST JUMPDEST PUSH1 0x0 PUSH2 0x1D87 DUP7 DUP3 DUP8 ADD PUSH2 0x1A44 JUMP JUMPDEST SWAP4 POP POP PUSH1 0x20 DUP5 ADD CALLDATALOAD PUSH8 0xFFFFFFFFFFFFFFFF DUP2 GT ISZERO PUSH2 0x1DA8 JUMPI PUSH2 0x1DA7 PUSH2 0x1A1E JUMP JUMPDEST JUMPDEST PUSH2 0x1DB4 DUP7 DUP3 DUP8 ADD PUSH2 0x1D0A JUMP JUMPDEST SWAP3 POP SWAP3 POP POP SWAP3 POP SWAP3 POP SWAP3 JUMP JUMPDEST PUSH2 0x1DC9 DUP2 PUSH2 0x1AD2 JUMP JUMPDEST DUP2 EQ PUSH2 0x1DD4 JUMPI PUSH1 0x0 DUP1 REVERT JUMPDEST POP JUMP JUMPDEST PUSH1 0x0 DUP2 CALLDATALOAD SWAP1 POP PUSH2 0x1DE6 DUP2 PUSH2 0x1DC0 JUMP JUMPDEST SWAP3 SWAP2 POP POP JUMP JUMPDEST PUSH1 0x0 DUP1 PUSH1 0x40 DUP4 DUP6 SUB SLT ISZERO PUSH2 0x1E03 JUMPI PUSH2 0x1E02 PUSH2 0x1A19 JUMP JUMPDEST JUMPDEST PUSH1 0x0 PUSH2 0x1E11 DUP6 DUP3 DUP7 ADD PUSH2 0x1A44 JUMP JUMPDEST SWAP3 POP POP PUSH1 0x20 PUSH2 0x1E22 DUP6 DUP3 DUP7 ADD PUSH2 0x1DD7 JUMP JUMPDEST SWAP2 POP POP SWAP3 POP SWAP3 SWAP1 POP JUMP JUMPDEST PUSH2 0x1E35 DUP2 PUSH2 0x1A23 JUMP JUMPDEST DUP3 MSTORE POP POP JUMP JUMPDEST PUSH2 0x1E44 DUP2 PUSH2 0x1C29 JUMP JUMPDEST DUP3 MSTORE POP POP JUMP JUMPDEST PUSH2 0x120 DUP3 ADD PUSH1 0x0 DUP3 ADD MLOAD PUSH2 0x1E61 PUSH1 0x0 DUP6 ADD DUP3 PUSH2 0x1E2C JUMP JUMPDEST POP PUSH1 0x20 DUP3 ADD MLOAD PUSH2 0x1E74 PUSH1 0x20 DUP6 ADD DUP3 PUSH2 0x1AE4 JUMP JUMPDEST POP PUSH1 0x40 DUP3 ADD MLOAD PUSH2 0x1E87 PUSH1 0x40 DUP6 ADD DUP3 PUSH2 0x1E2C JUMP JUMPDEST POP PUSH1 0x60 DUP3 ADD MLOAD PUSH2 0x1E9A PUSH1 0x60 DUP6 ADD DUP3 PUSH2 0x1E2C JUMP JUMPDEST POP PUSH1 0x80 DUP3 ADD MLOAD PUSH2 0x1EAD PUSH1 0x80 DUP6 ADD DUP3 PUSH2 0x1E2C JUMP JUMPDEST POP PUSH1 0xA0 DUP3 ADD MLOAD PUSH2 0x1EC0 PUSH1 0xA0 DUP6 ADD DUP3 PUSH2 0x1E2C JUMP JUMPDEST POP PUSH1 0xC0 DUP3 ADD MLOAD PUSH2 0x1ED3 PUSH1 0xC0 DUP6 ADD DUP3 PUSH2 0x1E2C JUMP JUMPDEST POP PUSH1 0xE0 DUP3 ADD MLOAD PUSH2 0x1EE6 PUSH1 0xE0 DUP6 ADD DUP3 PUSH2 0x1E2C JUMP JUMPDEST POP PUSH2 0x100 DUP3 ADD MLOAD PUSH2 0x1EFB PUSH2 0x100 DUP6 ADD DUP3 PUSH2 0x1E3B JUMP JUMPDEST POP POP POP POP JUMP JUMPDEST PUSH1 0x0 PUSH2 0x120 DUP3 ADD SWAP1 POP PUSH2 0x1F17 PUSH1 0x0 DUP4 ADD DUP5 PUSH2 0x1E4A JUMP JUMPDEST SWAP3 SWAP2 POP POP JUMP JUMPDEST PUSH1 0x0 PUSH1 0x20 DUP3 ADD SWAP1 POP PUSH2 0x1F32 PUSH1 0x0 DUP4 ADD DUP5 PUSH2 0x1C5F JUMP JUMPDEST SWAP3 SWAP2 POP POP JUMP JUMPDEST PUSH1 0x0 DUP1 PUSH1 0x40 DUP4 DUP6 SUB SLT ISZERO PUSH2 0x1F4F JUMPI PUSH2 0x1F4E PUSH2 0x1A19 JUMP JUMPDEST JUMPDEST PUSH1 0x0 PUSH2 0x1F5D DUP6 DUP3 DUP7 ADD PUSH2 0x1A44 JUMP JUMPDEST SWAP3 POP POP PUSH1 0x20 PUSH2 0x1F6E DUP6 DUP3 DUP7 ADD PUSH2 0x1A44 JUMP JUMPDEST SWAP2 POP POP SWAP3 POP SWAP3 SWAP1 POP JUMP JUMPDEST PUSH1 0x0 DUP1 PUSH1 0x40 DUP4 DUP6 SUB SLT ISZERO PUSH2 0x1F8F JUMPI PUSH2 0x1F8E PUSH2 0x1A19 JUMP JUMPDEST JUMPDEST PUSH1 0x0 PUSH2 0x1F9D DUP6 DUP3 DUP7 ADD PUSH2 0x1DD7 JUMP JUMPDEST SWAP3 POP POP PUSH1 0x20 PUSH2 0x1FAE DUP6 DUP3 DUP7 ADD PUSH2 0x1A44 JUMP JUMPDEST SWAP2 POP POP SWAP3 POP SWAP3 SWAP1 POP JUMP JUMPDEST PUSH1 0x0 PUSH1 0x20 DUP3 DUP5 SUB SLT ISZERO PUSH2 0x1FCE JUMPI PUSH2 0x1FCD PUSH2 0x1A19 JUMP JUMPDEST JUMPDEST PUSH1 0x0 PUSH2 0x1FDC DUP5 DUP3 DUP6 ADD PUSH2 0x1DD7 JUMP JUMPDEST SWAP2 POP POP SWAP3 SWAP2 POP POP JUMP JUMPDEST PUSH1 0x0 DUP2 MLOAD SWAP1 POP SWAP2 SWAP1 POP JUMP JUMPDEST PUSH1 0x0 DUP3 DUP3 MSTORE PUSH1 0x20 DUP3 ADD SWAP1 POP SWAP3 SWAP2 POP POP JUMP JUMPDEST PUSH1 0x0 DUP2 SWAP1 POP PUSH1 0x20 DUP3 ADD SWAP1 POP SWAP2 SWAP1 POP JUMP JUMPDEST PUSH1 0x0 PUSH2 0x201D DUP4 DUP4 PUSH2 0x1E2C JUMP JUMPDEST PUSH1 0x20 DUP4 ADD SWAP1 POP SWAP3 SWAP2 POP POP JUMP JUMPDEST PUSH1 0x0 PUSH1 0x20 DUP3 ADD SWAP1 POP SWAP2 SWAP1 POP JUMP JUMPDEST PUSH1 0x0 PUSH2 0x2041 DUP3 PUSH2 0x1FE5 JUMP JUMPDEST PUSH2 0x204B DUP2 DUP6 PUSH2 0x1FF0 JUMP JUMPDEST SWAP4 POP PUSH2 0x2056 DUP4 PUSH2 0x2001 JUMP JUMPDEST DUP1 PUSH1 0x0 JUMPDEST DUP4 DUP2 LT ISZERO PUSH2 0x2087 JUMPI DUP2 MLOAD PUSH2 0x206E DUP9 DUP3 PUSH2 0x2011 JUMP JUMPDEST SWAP8 POP PUSH2 0x2079 DUP4 PUSH2 0x2029 JUMP JUMPDEST SWAP3 POP POP PUSH1 0x1 DUP2 ADD SWAP1 POP PUSH2 0x205A JUMP JUMPDEST POP DUP6 SWAP4 POP POP POP POP SWAP3 SWAP2 POP POP JUMP JUMPDEST PUSH1 0x0 PUSH1 0x20 DUP3 ADD SWAP1 POP DUP2 DUP2 SUB PUSH1 0x0 DUP4 ADD MSTORE PUSH2 0x20AE DUP2 DUP5 PUSH2 0x2036 JUMP JUMPDEST SWAP1 POP SWAP3 SWAP2 POP POP JUMP JUMPDEST PUSH1 0x0 DUP3 DUP3 MSTORE PUSH1 0x20 DUP3 ADD SWAP1 POP SWAP3 SWAP2 POP POP JUMP JUMPDEST PUSH32 0x43616E2774204A6F696E2057616765722C204D6174636820616C726561647920 PUSH1 0x0 DUP3 ADD MSTORE PUSH32 0x5374617274656400000000000000000000000000000000000000000000000000 PUSH1 0x20 DUP3 ADD MSTORE POP JUMP JUMPDEST PUSH1 0x0 PUSH2 0x2123 PUSH1 0x27 DUP4 PUSH2 0x20B6 JUMP JUMPDEST SWAP2 POP PUSH2 0x212E DUP3 PUSH2 0x20C7 JUMP JUMPDEST PUSH1 0x40 DUP3 ADD SWAP1 POP SWAP2 SWAP1 POP JUMP JUMPDEST PUSH1 0x0 PUSH1 0x20 DUP3 ADD SWAP1 POP DUP2 DUP2 SUB PUSH1 0x0 DUP4 ADD MSTORE PUSH2 0x2152 DUP2 PUSH2 0x2116 JUMP JUMPDEST SWAP1 POP SWAP2 SWAP1 POP JUMP JUMPDEST PUSH32 0x4164647265737320697320616C72656164792061207061727469636970616E74 PUSH1 0x0 DUP3 ADD MSTORE POP JUMP JUMPDEST PUSH1 0x0 PUSH2 0x218F PUSH1 0x20 DUP4 PUSH2 0x20B6 JUMP JUMPDEST SWAP2 POP PUSH2 0x219A DUP3 PUSH2 0x2159 JUMP JUMPDEST PUSH1 0x20 DUP3 ADD SWAP1 POP SWAP2 SWAP1 POP JUMP JUMPDEST PUSH1 0x0 PUSH1 0x20 DUP3 ADD SWAP1 POP DUP2 DUP2 SUB PUSH1 0x0 DUP4 ADD MSTORE PUSH2 0x21BE DUP2 PUSH2 0x2182 JUMP JUMPDEST SWAP1 POP SWAP2 SWAP1 POP JUMP JUMPDEST PUSH32 0x4D617820456E747269657320666F722074686520576167657220526561636865 PUSH1 0x0 DUP3 ADD MSTORE PUSH32 0x6400000000000000000000000000000000000000000000000000000000000000 PUSH1 0x20 DUP3 ADD MSTORE POP JUMP JUMPDEST PUSH1 0x0 PUSH2 0x2221 PUSH1 0x21 DUP4 PUSH2 0x20B6 JUMP JUMPDEST SWAP2 POP PUSH2 0x222C DUP3 PUSH2 0x21C5 JUMP JUMPDEST PUSH1 0x40 DUP3 ADD SWAP1 POP SWAP2 SWAP1 POP JUMP JUMPDEST PUSH1 0x0 PUSH1 0x20 DUP3 ADD SWAP1 POP DUP2 DUP2 SUB PUSH1 0x0 DUP4 ADD MSTORE PUSH2 0x2250 DUP2 PUSH2 0x2214 JUMP JUMPDEST SWAP1 POP SWAP2 SWAP1 POP JUMP JUMPDEST PUSH32 0x53656E742056616C7565206D75737420626520657175616C20746F205374616B PUSH1 0x0 DUP3 ADD MSTORE PUSH32 0x6500000000000000000000000000000000000000000000000000000000000000 PUSH1 0x20 DUP3 ADD MSTORE POP JUMP JUMPDEST PUSH1 0x0 PUSH2 0x22B3 PUSH1 0x21 DUP4 PUSH2 0x20B6 JUMP JUMPDEST SWAP2 POP PUSH2 0x22BE DUP3 PUSH2 0x2257 JUMP JUMPDEST PUSH1 0x40 DUP3 ADD SWAP1 POP SWAP2 SWAP1 POP JUMP JUMPDEST PUSH1 0x0 PUSH1 0x20 DUP3 ADD SWAP1 POP DUP2 DUP2 SUB PUSH1 0x0 DUP4 ADD MSTORE PUSH2 0x22E2 DUP2 PUSH2 0x22A6 JUMP JUMPDEST SWAP1 POP SWAP2 SWAP1 POP JUMP JUMPDEST PUSH32 0x5374616B65206D7573742062652067726561746572207468616E207A65726F00 PUSH1 0x0 DUP3 ADD MSTORE POP JUMP JUMPDEST PUSH1 0x0 PUSH2 0x231F PUSH1 0x1F DUP4 PUSH2 0x20B6 JUMP JUMPDEST SWAP2 POP PUSH2 0x232A DUP3 PUSH2 0x22E9 JUMP JUMPDEST PUSH1 0x20 DUP3 ADD SWAP1 POP SWAP2 SWAP1 POP JUMP JUMPDEST PUSH1 0x0 PUSH1 0x20 DUP3 ADD SWAP1 POP DUP2 DUP2 SUB PUSH1 0x0 DUP4 ADD MSTORE PUSH2 0x234E DUP2 PUSH2 0x2312 JUMP JUMPDEST SWAP1 POP SWAP2 SWAP1 POP JUMP JUMPDEST PUSH32 0x4D617820456E7472696573206D7573742062652067726561746572207468616E PUSH1 0x0 DUP3 ADD MSTORE PUSH32 0x207A65726F000000000000000000000000000000000000000000000000000000 PUSH1 0x20 DUP3 ADD MSTORE POP JUMP JUMPDEST PUSH1 0x0 PUSH2 0x23B1 PUSH1 0x25 DUP4 PUSH2 0x20B6 JUMP JUMPDEST SWAP2 POP PUSH2 0x23BC DUP3 PUSH2 0x2355 JUMP JUMPDEST PUSH1 0x40 DUP3 ADD SWAP1 POP SWAP2 SWAP1 POP JUMP JUMPDEST PUSH1 0x0 PUSH1 0x20 DUP3 ADD SWAP1 POP DUP2 DUP2 SUB PUSH1 0x0 DUP4 ADD MSTORE PUSH2 0x23E0 DUP2 PUSH2 0x23A4 JUMP JUMPDEST SWAP1 POP SWAP2 SWAP1 POP JUMP JUMPDEST PUSH32 0x5573657220616C7265616479206372656174656420776167657220666F722074 PUSH1 0x0 DUP3 ADD MSTORE PUSH32 0x6869732067616D65000000000000000000000000000000000000000000000000 PUSH1 0x20 DUP3 ADD MSTORE POP JUMP JUMPDEST PUSH1 0x0 PUSH2 0x2443 PUSH1 0x28 DUP4 PUSH2 0x20B6 JUMP JUMPDEST SWAP2 POP PUSH2 0x244E DUP3 PUSH2 0x23E7 JUMP JUMPDEST PUSH1 0x40 DUP3 ADD SWAP1 POP SWAP2 SWAP1 POP JUMP JUMPDEST PUSH1 0x0 PUSH1 0x20 DUP3 ADD SWAP1 POP DUP2 DUP2 SUB PUSH1 0x0 DUP4 ADD MSTORE PUSH2 0x2472 DUP2 PUSH2 0x2436 JUMP JUMPDEST SWAP1 POP SWAP2 SWAP1 POP JUMP JUMPDEST PUSH32 0x4E487B7100000000000000000000000000000000000000000000000000000000 PUSH1 0x0 MSTORE PUSH1 0x11 PUSH1 0x4 MSTORE PUSH1 0x24 PUSH1 0x0 REVERT JUMPDEST PUSH1 0x0 PUSH2 0x24B3 DUP3 PUSH2 0x1A23 JUMP JUMPDEST SWAP2 POP PUSH2 0x24BE DUP4 PUSH2 0x1A23 JUMP JUMPDEST SWAP3 POP DUP3 DUP3 ADD SWAP1 POP DUP1 DUP3 GT ISZERO PUSH2 0x24D6 JUMPI PUSH2 0x24D5 PUSH2 0x2479 JUMP JUMPDEST JUMPDEST SWAP3 SWAP2 POP POP JUMP JUMPDEST PUSH1 0x0 PUSH1 0x40 DUP3 ADD SWAP1 POP PUSH2 0x24F1 PUSH1 0x0 DUP4 ADD DUP6 PUSH2 0x1BFF JUMP JUMPDEST PUSH2 0x24FE PUSH1 0x20 DUP4 ADD DUP5 PUSH2 0x1BFF JUMP JUMPDEST SWAP4 SWAP3 POP POP POP JUMP JUMPDEST PUSH32 0x576167657220686173206265656E207265736F6C766564000000000000000000 PUSH1 0x0 DUP3 ADD MSTORE POP JUMP JUMPDEST PUSH1 0x0 PUSH2 0x253B PUSH1 0x17 DUP4 PUSH2 0x20B6 JUMP JUMPDEST SWAP2 POP PUSH2 0x2546 DUP3 PUSH2 0x2505 JUMP JUMPDEST PUSH1 0x20 DUP3 ADD SWAP1 POP SWAP2 SWAP1 POP JUMP JUMPDEST PUSH1 0x0 PUSH1 0x20 DUP3 ADD SWAP1 POP DUP2 DUP2 SUB PUSH1 0x0 DUP4 ADD MSTORE PUSH2 0x256A DUP2 PUSH2 0x252E JUMP JUMPDEST SWAP1 POP SWAP2 SWAP1 POP JUMP JUMPDEST PUSH32 0x57696E6E65727320417272617920497320426967676572207468616E20576167 PUSH1 0x0 DUP3 ADD MSTORE PUSH32 0x657220456E747269657300000000000000000000000000000000000000000000 PUSH1 0x20 DUP3 ADD MSTORE POP JUMP JUMPDEST PUSH1 0x0 PUSH2 0x25CD PUSH1 0x2A DUP4 PUSH2 0x20B6 JUMP JUMPDEST SWAP2 POP PUSH2 0x25D8 DUP3 PUSH2 0x2571 JUMP JUMPDEST PUSH1 0x40 DUP3 ADD SWAP1 POP SWAP2 SWAP1 POP JUMP JUMPDEST PUSH1 0x0 PUSH1 0x20 DUP3 ADD SWAP1 POP DUP2 DUP2 SUB PUSH1 0x0 DUP4 ADD MSTORE PUSH2 0x25FC DUP2 PUSH2 0x25C0 JUMP JUMPDEST SWAP1 POP SWAP2 SWAP1 POP JUMP JUMPDEST PUSH32 0x43616E2774205265736F6C76652057616765722C204D61746368204861766E27 PUSH1 0x0 DUP3 ADD MSTORE PUSH32 0x7420537461727465640000000000000000000000000000000000000000000000 PUSH1 0x20 DUP3 ADD MSTORE POP JUMP JUMPDEST PUSH1 0x0 PUSH2 0x265F PUSH1 0x29 DUP4 PUSH2 0x20B6 JUMP JUMPDEST SWAP2 POP PUSH2 0x266A DUP3 PUSH2 0x2603 JUMP JUMPDEST PUSH1 0x40 DUP3 ADD SWAP1 POP SWAP2 SWAP1 POP JUMP JUMPDEST PUSH1 0x0 PUSH1 0x20 DUP3 ADD SWAP1 POP DUP2 DUP2 SUB PUSH1 0x0 DUP4 ADD MSTORE PUSH2 0x268E DUP2 PUSH2 0x2652 JUMP JUMPDEST SWAP1 POP SWAP2 SWAP1 POP JUMP JUMPDEST PUSH32 0x41646472657373206973206E6F742061207061727469636970616E7400000000 PUSH1 0x0 DUP3 ADD MSTORE POP JUMP JUMPDEST PUSH1 0x0 PUSH2 0x26CB PUSH1 0x1C DUP4 PUSH2 0x20B6 JUMP JUMPDEST SWAP2 POP PUSH2 0x26D6 DUP3 PUSH2 0x2695 JUMP JUMPDEST PUSH1 0x20 DUP3 ADD SWAP1 POP SWAP2 SWAP1 POP JUMP JUMPDEST PUSH1 0x0 PUSH1 0x20 DUP3 ADD SWAP1 POP DUP2 DUP2 SUB PUSH1 0x0 DUP4 ADD MSTORE PUSH2 0x26FA DUP2 PUSH2 0x26BE JUMP JUMPDEST SWAP1 POP SWAP2 SWAP1 POP JUMP JUMPDEST PUSH32 0x4E487B7100000000000000000000000000000000000000000000000000000000 PUSH1 0x0 MSTORE PUSH1 0x32 PUSH1 0x4 MSTORE PUSH1 0x24 PUSH1 0x0 REVERT JUMPDEST PUSH32 0x4E487B7100000000000000000000000000000000000000000000000000000000 PUSH1 0x0 MSTORE PUSH1 0x12 PUSH1 0x4 MSTORE PUSH1 0x24 PUSH1 0x0 REVERT JUMPDEST PUSH1 0x0 PUSH2 0x276A DUP3 PUSH2 0x1A23 JUMP JUMPDEST SWAP2 POP PUSH2 0x2775 DUP4 PUSH2 0x1A23 JUMP JUMPDEST SWAP3 POP DUP3 PUSH2 0x2785 JUMPI PUSH2 0x2784 PUSH2 0x2730 JUMP JUMPDEST JUMPDEST DUP3 DUP3 DIV SWAP1 POP SWAP3 SWAP2 POP POP JUMP JUMPDEST PUSH1 0x0 DUP2 SWAP1 POP SWAP3 SWAP2 POP POP JUMP JUMPDEST POP JUMP JUMPDEST PUSH1 0x0 PUSH2 0x27AB PUSH1 0x0 DUP4 PUSH2 0x2790 JUMP JUMPDEST SWAP2 POP PUSH2 0x27B6 DUP3 PUSH2 0x279B JUMP JUMPDEST PUSH1 0x0 DUP3 ADD SWAP1 POP SWAP2 SWAP1 POP JUMP JUMPDEST PUSH1 0x0 PUSH2 0x27CC DUP3 PUSH2 0x279E JUMP JUMPDEST SWAP2 POP DUP2 SWAP1 POP SWAP2 SWAP1 POP JUMP JUMPDEST PUSH32 0x4661696C656420746F2073656E64204574686572000000000000000000000000 PUSH1 0x0 DUP3 ADD MSTORE POP JUMP JUMPDEST PUSH1 0x0 PUSH2 0x280C PUSH1 0x14 DUP4 PUSH2 0x20B6 JUMP JUMPDEST SWAP2 POP PUSH2 0x2817 DUP3 PUSH2 0x27D6 JUMP JUMPDEST PUSH1 0x20 DUP3 ADD SWAP1 POP SWAP2 SWAP1 POP JUMP JUMPDEST PUSH1 0x0 PUSH1 0x20 DUP3 ADD SWAP1 POP DUP2 DUP2 SUB PUSH1 0x0 DUP4 ADD MSTORE PUSH2 0x283B DUP2 PUSH2 0x27FF JUMP JUMPDEST SWAP1 POP SWAP2 SWAP1 POP JUMP JUMPDEST PUSH1 0x0 DUP2 SWAP1 POP SWAP2 SWAP1 POP JUMP JUMPDEST PUSH1 0x0 PUSH2 0x285B PUSH1 0x20 DUP5 ADD DUP5 PUSH2 0x1DD7 JUMP JUMPDEST SWAP1 POP SWAP3 SWAP2 POP POP JUMP JUMPDEST PUSH1 0x0 PUSH1 0x20 DUP3 ADD SWAP1 POP SWAP2 SWAP1 POP JUMP JUMPDEST PUSH1 0x0 PUSH2 0x287C DUP4 DUP6 PUSH2 0x1A91 JUMP JUMPDEST SWAP4 POP PUSH2 0x2887 DUP3 PUSH2 0x2842 JUMP JUMPDEST DUP1 PUSH1 0x0 JUMPDEST DUP6 DUP2 LT ISZERO PUSH2 0x28C0 JUMPI PUSH2 0x289D DUP3 DUP5 PUSH2 0x284C JUMP JUMPDEST PUSH2 0x28A7 DUP9 DUP3 PUSH2 0x1AF3 JUMP JUMPDEST SWAP8 POP PUSH2 0x28B2 DUP4 PUSH2 0x2863 JUMP JUMPDEST SWAP3 POP POP PUSH1 0x1 DUP2 ADD SWAP1 POP PUSH2 0x288B JUMP JUMPDEST POP DUP6 SWAP3 POP POP POP SWAP4 SWAP3 POP POP POP JUMP JUMPDEST PUSH1 0x0 PUSH1 0x20 DUP3 ADD SWAP1 POP DUP2 DUP2 SUB PUSH1 0x0 DUP4 ADD MSTORE PUSH2 0x28E8 DUP2 DUP5 DUP7 PUSH2 0x2870 JUMP JUMPDEST SWAP1 POP SWAP4 SWAP3 POP POP POP JUMP JUMPDEST PUSH32 0x4F6E6C79207468652063726561746F722063616E2063616E636C652074686520 PUSH1 0x0 DUP3 ADD MSTORE PUSH32 0x7374616B65000000000000000000000000000000000000000000000000000000 PUSH1 0x20 DUP3 ADD MSTORE POP JUMP JUMPDEST PUSH1 0x0 PUSH2 0x294D PUSH1 0x25 DUP4 PUSH2 0x20B6 JUMP JUMPDEST SWAP2 POP PUSH2 0x2958 DUP3 PUSH2 0x28F1 JUMP JUMPDEST PUSH1 0x40 DUP3 ADD SWAP1 POP SWAP2 SWAP1 POP JUMP JUMPDEST PUSH1 0x0 PUSH1 0x20 DUP3 ADD SWAP1 POP DUP2 DUP2 SUB PUSH1 0x0 DUP4 ADD MSTORE PUSH2 0x297C DUP2 PUSH2 0x2940 JUMP JUMPDEST SWAP1 POP SWAP2 SWAP1 POP JUMP JUMPDEST PUSH32 0x4D6F7265207468616E206F6E65207573657220686173207374616B6564000000 PUSH1 0x0 DUP3 ADD MSTORE POP JUMP JUMPDEST PUSH1 0x0 PUSH2 0x29B9 PUSH1 0x1D DUP4 PUSH2 0x20B6 JUMP JUMPDEST SWAP2 POP PUSH2 0x29C4 DUP3 PUSH2 0x2983 JUMP JUMPDEST PUSH1 0x20 DUP3 ADD SWAP1 POP SWAP2 SWAP1 POP JUMP JUMPDEST PUSH1 0x0 PUSH1 0x20 DUP3 ADD SWAP1 POP DUP2 DUP2 SUB PUSH1 0x0 DUP4 ADD MSTORE PUSH2 0x29E8 DUP2 PUSH2 0x29AC JUMP JUMPDEST SWAP1 POP SWAP2 SWAP1 POP JUMP INVALID LOG2 PUSH5 0x6970667358 0x22 SLT KECCAK256 PUSH4 0x5BE4C37 0xD5 0xC6 COINBASE 0xAA 0xD2 ORIGIN SHR PUSH22 0x35910CE4629360AA85D109D6FFA14E5435702D64736F PUSH13 0x63430008190033000000000000 "
        },
        "methodIdentifiers": {
          "cancleWager(uint256)": "53922ada",
          "createWager(uint256,uint256,uint256,uint256)": "0e740147",
          "gameWagerNumber(uint256)": "22a1b1de",
          "getNumberOfWagers(uint256)": "beb88b93",
          "getUserWagers(address)": "e0d2ad37",
          "getWager(uint256)": "7a2756f2",
          "getWagerWinners(uint256)": "0c0ecc95",
          "hasCreatedMatchWager(uint256,address)": "8b26c303",
          "isParticipant(uint256,address)": "758d9b89",
          "joinWager(uint256)": "08492e2c",
          "owner()": "8da5cb5b",
          "resolveWager(uint256,address[])": "514f0fe0",
          "totalWager()": "def972e1",
          "userWagers(address,uint256)": "d8a66792",
          "wagerCreator(uint256)": "fb1bc0cc",
          "wagerEntries(uint256,uint256)": "cc459288",
          "wagerResolved(uint256)": "2580eb72",
          "wagerWinners(uint256,uint256)": "b97db251",
          "wagers(uint256)": "375068e5"
        }
      }
    }
  }
}